:020000040800F2
:10000000B0C20120550200089B470008C339000810
:10001000E5400008FD0B00082D9C000800000000D2
:100020000000000000000000000000009D0100082A
:10003000E525000800000000F10100089D5B0008B4
:100040006F0200086F0200086F020008DD50000810
:100050006F0200086F0200086F0200086F020008BC
:100060006F0200086F0200086F0200086F020008AC
:100070006F0200086F0200086F0200086F0200089C
:100080006F0200086F0200086F0200086F0200088C
:100090006F0200086F0200086F0200086F0200087C
:1000A0006F0200086F0200086F0200086F0200086C
:1000B0006F020008155C00086F0200086F0200085C
:1000C0006F0200086F0200086F0200086F0200084C
:1000D0006F020008895E00086F020008115F0008C7
:1000E00079350008394D00086F0200086F020008DA
:1000F0006F0200086F0200086F0200086F0200081C
:100100006F0200086F0200086F0200086F0200080B
:100110000D5E00086F0200086F0200086F02000801
:100120006F0200086F0200086F0200086F020008EB
:100130006F020008352E00086F0200086F020008E9
:100140006F0200086F0200086F02000829480008CB
:100150006F0200086F0200086F0200086D5F000860
:100160006F0200086F0200086F0200086F020008AB
:100170006F0200086F0200086F0200086F0200089B
:100180006F0200086F020008DFF80CD000F0F8F9E9
:1001900000480047B9130108B0C201202A4B196872
:1001A0000868B0E8F04F80F30988BFF36F8F4FF015
:1001B000000080F3118870470000000006480068C6
:1001C000006880F3088862B661B6BFF34F8FBFF353
:1001D0006F8F00DF00BF00BF08ED00E0DFF80C000C
:1001E000016841F470010160704700BF88ED00E0D4
:1001F000EFF30980BFF36F8F134B1A681EF0100FD7
:1002000008BF20ED108A20E9F04F106008B44FF0CD
:10021000200080F31188BFF34F8FBFF36F8F1CF066
:10022000F5F94FF0000080F3118808BC19680868E0
:10023000B0E8F04F1EF0100F08BFB0EC108A80F34A
:100240000988BFF36F8F7047C4000020EFF305806B
:10025000704700000648804706480047FEE7FEE773
:10026000FEE7FEE7FEE7FEE7FEE7FEE7FEE7FEE766
:10027000AD5B00088901000840EA01039B0703D039
:1002800009E008C9121F08C0042AFAD203E011F8D5
:10029000013B00F8013B521EF9D27047D2B201E097
:1002A00000F8012B491EFBD270470022F6E710B57B
:1002B00013460A4604461946FFF7F0FF204610BDD4
:1002C000421E12F8013F002BFBD111F8013B02F84E
:1002D000013B002BF9D17047421C10F8011B00298B
:1002E000FBD1801A704730B504460020034600E079
:1002F0005B1C934203D2E05CCD5C401BF8D030BD68
:100300002DE9FE4F81EA030404F0004421F000418E
:1003100000944FF0000B23F0004350EA01045ED03C
:1003200052EA03045BD0C3F30A54C1F30A552C44C8
:10033000A4F2F3340194A0FB0254C1F3130141F47D
:100340008011C3F3130343F4801301FB024400FB49
:10035000034E840A970A44EA815447EA8357A4FB70
:10036000076802958D0A05FB07854FEA932C04FB6D
:100370000C542705029D4FEA065847EA1637B5EB9D
:1003800008056EEB070C870E920E47EA811742EACA
:100390008312A7FB0201B6EB0B0164EB00042B0DEB
:1003A00043EA0C335E1844EB1C50DA465146E7FB37
:1003B0000201C5F313044FEA0B3343EA14534FEA27
:1003C0000432019C43EA0603A4F10C040294009C4D
:1003D000CDE900B400F086F803B0BDE8F08F00204E
:1003E0000146F9E70EB5C10F80EAE0700844CA077C
:1003F000002140F233438DE80E000A460B4600F020
:1004000071F803B000BD70B5C1F30A5201F00045A8
:100410000024C1F3130140F2FF3341F480119A42EA
:1004200001DA002070BD40F233439A42A2F2334217
:1004300003DC524200F037F800E090402C43F1D04A
:10044000404270BD2DE9F05F0546002092469B4674
:1004500088460646814640241BE0284641464746DA
:10046000224600F020F853465A46C01A914110D354
:1004700011461846224600F095F82D1A67EB010840
:100480004F4622460120002100F08CF817EB0009AE
:100490004E41201EA4F10104DFDC484631462A46C5
:1004A0004346BDE8F09F202A04DB203A21FA02F0FF
:1004B0000021704721FA02F3D040C2F1200291409E
:1004C00008431946704710B5141E73F1000408DA8A
:1004D000401C41F1000192185B411A4301D120F008
:1004E000010010BD2DE9F04D92469B4611B1B1FAC5
:1004F00081F202E0B0FA80F22032904600F052F829
:1005000004460F4640EA0A0041EA0B0153465A46A8
:10051000084313D0114653EA010019D0C8F1400234
:100520005046FFF7C0FF05460E4650465946424624
:1005300000F038F8084305D0012004E02046394691
:10054000BDE8F08D0020054346EAE0762C433743B2
:100550000A986305E40AA0EB08000022FD0A44EAB9
:1005600047540A3002D500200146E9E70105101979
:100570006941DDE9084500196941BDE8F04DA2E790
:10058000064C074D06E0E06840F0010394E80700E0
:1005900098471034AC42F6D3FFF7FAFD9087040871
:1005A000B0870408202A04DB203A00FA02F1002078
:1005B00070479140C2F1200320FA03F319439040A1
:1005C000704770B58C1810F8015B15F0070301D166
:1005D00010F8013B2A1106D110F8012B03E010F8A6
:1005E000016B01F8016B5B1EF9D12B0705D40023C9
:1005F000521E0DD401F8013BFAE710F8013BCB1A6B
:10060000921C03E013F8015B01F8015B521EF9D55F
:10061000A142D8D3002070BD70B590B004460D46FD
:1006200016460121880504F049FA164800F0FEFB41
:1006300000BF144800F0A6FC0028FAD101900294F3
:100640000395802004900596002006904FF480606A
:10065000079040000890099000200A904FF4403025
:100660000B9004200C9003200D9000200E900F9012
:1006700001A9044800F0B6FC0121024800F0CAFBC1
:1006800010B070BD106402401CB50121084604F092
:1006900045FA0121582004F011FA0C220021524899
:1006A00003F0BFF80C2201214F4803F0BAF80C22E6
:1006B00004214D4803F0B5F80C2205214A4803F007
:1006C000B0F80C220821484803F0ABF80C220921AD
:1006D000454803F0A6F80C220A21434803F0A1F88C
:1006E0000C220E21404803F09CF80C220F213E48BA
:1006F00003F097F84CF23370009002208DF804005C
:1007000003208DF8050000208DF806008DF8070005
:100710006946354803F03DF80C220421334803F0C4
:1007200080F80C220521314803F07BF80C220721C8
:100730002E4803F076F80C2208212C4803F071F8BB
:100740000C220921294803F06CF80C220A212748C1
:1007500003F067F80C220B21244803F062F80C2206
:100760001146224803F05DF80C220D211F4803F0CA
:1007700058F80C220E211D4803F053F80C220F21CB
:100780001A4803F04EF84FF6B070009069461748CB
:1007900002F0FFFF0C221146154803F042F84FF417
:1007A000805000906946124802F0F3FF012140207A
:1007B00004F084F901208DF8040003208DF8050071
:1007C00000208DF806008DF807003C200090694657
:1007D000074802F0DEFF4FF440500090694602489F
:1007E00002F0D7FF1CBD0000000C024000100240C8
:1007F00000180240F0B589B005460121042004F03C
:100800009DF90121082004F059F94FF48050079018
:1008100002208DF8200003208DF8210000208DF8A3
:10082000220001208DF8230007A93F4802F0B1FF04
:1008300002220C213C4802F0F4FF3C4800684708C3
:1008400040F6B830854208D263266420B7FBF0F04A
:10085000B0FBF5F0401E84B204E00026B7FBF5F0D3
:10086000401E84B20794ADF818600020ADF8200057
:10087000ADF81A0006A92E4805F056FA204604EBFA
:10088000D071491003916020ADF804000120ADF84B
:1008900006000220ADF8100001A9254805F0FCF97A
:1008A0000821234805F036FA0121214805F0C8F94E
:1008B00001211F4805F0D3F90121082004F0FEF8BA
:1008C0000121880304F05AF900208DF818008DF8F2
:1008D0001B004FF40050059005A9134802F059FF82
:1008E0000D21032004F00EFD4FF40050079000206E
:1008F0008DF820000C208DF8210001208DF82200B9
:1009000007A802F06FFE28208DF8100003208DF854
:10091000110000208DF8120001208DF8130004A8AA
:1009200003F03CFF09B0F0BD000C02404C00002079
:100930000008004000B597B003200190002002900D
:100940000620039001200490002005900690079057
:1009500006200890002009900A9010200B9000209B
:100960000C900D900E900F9010904FF480501190BD
:10097000002012901390149001A81590169008A8CA
:1009800002F094FE0121062002F076FE17B000BDB1
:1009900010B500F001F810BD10B50749074800F088
:1009A000FFFA38B10449054800F01AFA0821034853
:1009B00003F00EF910BD000020000010106402408A
:1009C000202005490880891E08800880088008804A
:1009D000891C0880704700001A18024029490870D5
:1009E000072840D2DFE800F040040D17202A350028
:1009F0001021254A1180082111800421921E1180A6
:100A00003DE01021204A11800821921E118004210E
:100A1000921C118033E010211B4A11800821921E84
:100A20001180042111802AE01021174A921E1180A2
:100A30000821921C11800421118020E01021124A0B
:100A4000921E11800821921C11800421921E118097
:100A500015E010210C4A921E1180082111800421FA
:100A6000921C11800BE000BF0021064A117010217A
:100A7000054A1180082111800421118000BF00BFA8
:100A800070470000E44700201A1802404FF48050DD
:100A90000349088008800880891E0880704700008C
:100AA0001A0C024010B5044600F010F8FFF788FF5A
:100AB000FFF7ECFF00200449088048808880887197
:100AC0002046FFF797FE10BDF64700201CB5002119
:100AD0000F4805F0C4F80121082003F0EFFF0120C2
:100AE0008DF8040003208DF8050000208DF8060025
:100AF0008DF807004FF4805000906946054802F0D9
:100B000048FE4FF480500349183108801CBD000096
:100B100000080040000C024030B589B000250024D8
:100B2000AA2229466D1C01A84254BB2229466D1CED
:100B3000425400BF13E01E4830F81400C0F30722EF
:100B40002846691CCDB201A90A54194810F814208E
:100B50002846691CCDB201A90A54601CC4B2082CF5
:100B6000E9DBCC222846691CCDB201A90A54DD225A
:100B70002846691CCDB201A90A54002405E001A849
:100B8000005D0C490855601CC4B2AC42F7DB4FF065
:100B90002051094800F004FA20B14FF020510648D6
:100BA00000F01EF92946044803F012F809B030BDE0
:100BB000F811002068580120B86402401CB50121DA
:100BC000084603F07BFF4FF48070009001208DF801
:100BD000040000208DF8060003208DF80500022097
:100BE0008DF807006946044802F0D3FD4FF4807188
:100BF000014802F039FE1CBD0000024000BFFEE7C4
:100C000070B586B006460024EE222146641C01A879
:100C10004254B1222146641C425400222146641CE5
:100C2000425432122146641C42542146641C4654EC
:100C3000FF222146641C4254FC222146641C42547B
:100C4000FF222046611CCCB201A90A542046611C37
:100C5000CCB201A90A54002505E001A8405D0B496A
:100C60004855681CC5B2A542F7DB4FF0C051084893
:100C700000F096F920B14FF0C051054800F0B0F8EF
:100C80002146034802F0A4FF06B070BDA057012022
:100C90005860024000B587B04948007F012805D15F
:100CA00048A20321042004F035FD04E047A20321FB
:100CB000042004F02FFD022009F01CFD4048407F75
:100CC000012805D13FA20521042004F023FD04E002
:100CD0003EA20521042004F01DFD022009F00AFDBA
:100CE0003748C07F012805D136A20921042004F02D
:100CF00011FD04E035A20921042004F00BFD0220BF
:100D000009F0F8FC2E48807F012805D12DA20C2186
:100D1000042004F0FFFC04E02CA20C21042004F0C9
:100D2000F9FC022009F0E6FC2548028C0023112181
:100D3000042001F0D5FD022009F0DCFC2048C07A37
:100D40001F49897ACDE900101D48437A027A21A112
:100D500002A809F0FBF802AA0E21042004F0DAFC34
:100D6000022009F0C7FC1648C07B1549897BCDE9F4
:100D700000101348437B027B16A102A809F0E6F895
:100D800002AA0F21042004F0C5FC022009F0B2FCE5
:100D90000B48C07C0A49897CCDE900100848437C97
:100DA000027C0CA102A809F0D1F802AA10210420AB
:100DB00004F0B0FC022009F09DFC07B000BD00006B
:100DC00000030020B4F2BFAA00000000B9D8B1D5DA
:100DD0000000000025642E25642E25642E25640065
:100DE0000246094B9A4201D2084801E006481038F1
:100DF00001F000531BB1064B0B40C36002E0044BF3
:100E00000B408360704700001064024000600240A5
:100E10007D0F7D0F21B1026842F00102026003E004
:100E2000026822F00102026070470000016821F0B0
:100E3000010101600021016041608160C1600161C8
:100E4000212141614A49884204D13D21484A103A52
:100E500091608CE046491831884205D14FF47461A5
:100E6000434A103A916082E041493031884205D1CD
:100E70004FF474113E4A103A916078E03C49483191
:100E8000884205D14FF07461394A103A91606EE0A2
:100E900037496031884204D13649354A103AD16029
:100EA00065E033497831884204D13349304A103AF9
:100EB000D1605CE02E499031884204D12F492C4A00
:100EC000103AD16053E02A49A831884205D14FF049
:100ED0003D51274A103AD16049E02949884204D15E
:100EE0003D21274A083A116041E0254918318842DE
:100EF00005D14FF47461224A083A116037E0204965
:100F00003031884205D14FF474111D4A083A1160FE
:100F10002DE01B494831884205D14FF07461184AD1
:100F2000083A116023E016496031884204D1114922
:100F3000134A121F11601AE011497831884204D116
:100F40000D490F4A121F116011E00D49903188427E
:100F500004D10A490A4A121F116008E00849A83161
:100F6000884204D14FF03D51054A121F116070476D
:100F7000106002403D000020400F002000003D2096
:100F800010640240014600200A6802F001020AB122
:100F9000012000E0002070470146486880B2704799
:100FA00030B503460A46002000240B4DAB4201D267
:100FB0000A4901E00849103902F000550DB14C68AA
:100FC00000E00C68064D2C4004EA02050DB101203A
:100FD00000E0002030BD00001064024000600240CC
:100FE0007D0F7D0F10B500220268134B1A40CC68AC
:100FF0000B6823434C6923438C692343CC69234307
:101000000C6A23434C6A23438C6A23434C6B23436F
:101010008C6B23431A430260426922F00702D1E934
:101020000B3423431A4342610B6943604B6883606E
:101030008B68C36010BD00003F801CF041607047AA
:1010400010B500241448006820F4402012490860BC
:1010500008460068086004E0601CC4B2012009F082
:1010600069FB0E48006808B1C82CF5DBC82C01DB11
:10107000012010BD002404E0601CC4B2012009F06E
:1010800059FB0648006808B9F02CF5DBF02C01DBB1
:101090000120EEE70020ECE7001802402402434262
:1010A0002DE9F0412DED048B00F0C4F800F0A0F81C
:1010B000FFF7C6FFCC2000F0C9F8BE2000F0C6F84C
:1010C00000F084F8074600F081F80446072C05DD9F
:1010D000E043C4B2F843C7B2002600E0012625462B
:1010E000280205B2E81905B22846FFF77BF941EC62
:1010F000190B9FED0A0B53EC102BFFF701F941EC94
:10110000180BFFF780F905B226B12846BDEC048B19
:10111000BDE8F081684200B2F8E70000000000007E
:101120000000E43F1CB50121402003F0C7FC4FF450
:101130000070009001208DF8040000208DF806005A
:1011400002208DF8050001208DF80700694604484B
:1011500002F01FFB00F04CF8FFF772FF1CBD00000F
:101160000018024010B51648006820F440201449C9
:1011700008600846006840F480200860002011499B
:101180000860022009F0D6FA01200F49C1F8A40234
:101190000B48006820F440200949086008460068B0
:1011A00008600C2009F0C6FA06488038006808B1CB
:1011B000012400E00024322009F0BCFA204610BDD2
:1011C00000180240A40243420000434270B50026CA
:1011D000012508E0FFF7C6FF0446E00140EA66008B
:1011E000C6B2681CC5B2082DF4DD304670BD0000E3
:1011F00010B50D48006820F440200B4908600846EF
:10120000006840F48020086000200849086040F22F
:10121000EE2009F08FFA01200549C1F8A4020F2041
:1012200009F088FA10BD000000180240A4024342F1
:101230000000434210B5FFF7DBFFFFF701FFCC20B2
:1012400000F004F8442000F001F810BD70B5044629
:101250001848006820F440201649086008460068D5
:1012600040F480200860012520E004F001066410AD
:101270006EB1002010490860022009F05BFA0120DD
:101280000E49C1F8A4023C2009F054FA0CE00020F9
:10129000094908603C2009F04DFA01200749C1F8CE
:1012A000A402022009F046FA681CC5B2082DDCDD54
:1012B00070BD000000180240A402434200004342F7
:1012C000A8B00027B946B846BA460025FEE3F9485B
:1012D000007800286FDD082408E0F748025D284602
:1012E000691CCDB201A90A54601CC4B2F14800784F
:1012F000401FA042F1DCF0484078B1281FD1EE48F1
:10130000007902281BD1EC48807903280AD1EB48E8
:10131000408C41F28831884204DAE848408C401C15
:10132000E6494884E4488079042808D1E348408CA1
:101330000A2804DDE148408C401EE0494884DE482C
:101340004078B12844D1DC480079032840D1DA48FC
:10135000807908280BD1D848007A40B90120FFF7DE
:101360004FFC0120D6490880052009F0C3F9D24876
:10137000807908282CD1D048007A012828D1D1487A
:10138000006808B9012000E00020CE490860CE487E
:1013900004F078FACD480068A0F16401C822CA4878
:1013A00008F00AFDC82009F0A5F9C948D0F8A00244
:1013B00010B9012001E0F9E30020C24908600120D2
:1013C000FFF71EFC0120BE490880052009F092F9B4
:1013D000B9484078B1286ED1B74800790428FAD1CD
:1013E000B5488079801F0C287ED2DFE800F0061116
:1013F000F0F01CF0F0275188BC32AF48007A18B9E1
:101400000120AE49487702E00020AC494877DFE090
:10141000A948007A18B90120A849087702E00020FD
:10142000A6490877D4E0A448007A18B90120A34956
:10143000C87702E00020A149C877C9E09E48007A39
:1014400018B901209D49887702E000209B498877E0
:10145000BEE000209949088400240DE09D4830F842
:10146000140030389549098C01EB810100EB4100F3
:1014700092490884601CC4B2AC42EFDB8F48C07D47
:10148000012804D18D48018C93A008F04FFD9FE006
:101490000026002189480830815500241CE001A85D
:1014A000005D2E2808D10021701CC2B21646834868
:1014B000083081540EE08CE001A8005D30387F498F
:1014C0000831895D01EB810100EB4100C1B27B482D
:1014D00008308155601CC4B2AC42E0DB7748C07D67
:1014E00001280BD1754800E071E0C07A0090734884
:1014F000837A427A017A7CA008F018FD68E0002621
:1015000000216E480C30815500241BE001A8005DCD
:101510002E2807D10021701CC2B2164667480C3035
:1015200081540DE001A8005D303864490C31895DBB
:1015300001EB810100EB4100C1B260480C308155E4
:10154000601CC4B2AC42E1DB5C48C07D012809D11B
:101550005A48C07B00905948837B427B017B62A044
:1015600008F0E4FC34E00026002154481030815596
:1015700000241BE001A8005D2E2807D10021701C6B
:10158000C2B216464D48103081540DE001A8005DEE
:1015900030384A491031895D01EB810100EB41008F
:1015A000C1B2464810308155601CC4B2AC42E1DB88
:1015B0004248C07D012809D14048C07C00903F4886
:1015C000837C427C017C48A008F0B0FC00E000BFB6
:1015D00000BF39484078B1286BD1374800790528D9
:1015E000FAD135488079022813D100204549088076
:1015F00000240CE001A8005D30384249098801EB65
:10160000810100EB41003F490880601CC4B2AC423C
:10161000F0DB294880790F287CD12A48006808B976
:10162000012000E0002027490860374800780028A2
:1016300003DD35480078072802DB012032490870B5
:10164000002131480078401E304A42F82010002422
:1016500017E02D480078401E2C4951F820102A48E8
:101660000078401E2A4A52F820000144264800789B
:10167000401E264A42F820100A2009F03BF8601C60
:10168000C4B20A2CE5DB20480078401E1F4951F8FF
:1016900020000A2190FBF1F082B21B480078401E26
:1016A0000649243121F810200648006898BB012023
:1016B00033E0D8E099000020CC580120000300203E
:1016C00048000020A00240426E0300204400002099
:1016D00000004042B81100204E6574506F72743A99
:1016E00025640D0A0000000049504164647265736E
:1016F000733A2025642E25642E25642E25640D0A58
:10170000000000003C0000203400002008100020F1
:10171000A011002003E0FFE70020FE490860FE481A
:101720008079102866D1FB48006808B9012000E0E4
:101730000020F8490860F9480078002803DDF748E0
:101740000078072802DB0120F44908700021F348E3
:101750000078401EF24A42F82010002417E0EF48BB
:101760000078401EEE4951F82010EC480078401EE9
:10177000EC4A52F820000144E8480078401EE84A4C
:1017800042F820100A2008F0B5FF601CC4B20A2CF1
:10179000E5DBE2480078401EE14951F820000A21CB
:1017A00090FBF1F1DD480078401EDD4A42F8201040
:1017B000DA480078401E114651F82020D7480078BA
:1017C000401ED94931F81000101AD8490988C903B8
:1017D00091FBF0F082B2D1480078401ED24910311E
:1017E00021F81020CB48006808B9012000E0002053
:1017F000C8490860C8488079022827DDC648807932
:10180000092823DA0022C4488079C01EC649103155
:1018100021F81020002417E001A8005D3038BE49EF
:101820008979C91EC04A103232F8111001EB8101CA
:1018300000EB410082B2B8488079C01EBA4910312D
:1018400021F81020601CC4B2AC42E5DBB2488079BC
:10185000122808DDB0488079192804DAAE4880796A
:101860001238AE490870AC484078B1287ED1AA48F9
:1018700000790628FAD1A8488079022816D1AA480A
:101880002438007D00F0010040B1A7482438007DD5
:1018900000F0FE00A4492439087507E0A248243866
:1018A000007D40F00100A049243908759A488079EC
:1018B000032816D19C482438007D00F0020040B176
:1018C00099482438007D00F0FD00974924390875B7
:1018D00007E095482438007D40F002009249243901
:1018E00008758D488079042816D18F482438007DEA
:1018F00000F0040040B18C482438007D00F0FB006B
:1019000089492439087507E087482438007D40F06C
:1019100004008549243908757F48807908281AD140
:10192000002181482438A0F86210002411E001A8A9
:10193000005D30387C492439B1F8621001EB810137
:1019400000EB410081B278482438A0F86210601C96
:10195000C4B2AC42EBDB70488079102804D16E48E9
:10196000007A7149243948756B4800E07FE080793E
:1019700016280BD16848007A20B901206A49243919
:10198000887503E0002068492439887562488079A9
:10199000142804D16048007A6349243908765E48E7
:1019A000807915280BD15C48007A20B901205E4966
:1019B0002439C87503E000205B492439C8755648AE
:1019C00080790D2819D1002057492439A1F8440005
:1019D000002410E001A8005D303853492439B1F8E3
:1019E000441001EB810100EB41004F492439A1F87B
:1019F0004400601CC4B2AC42ECDB474880790E283E
:101A00001AD1002148482438A0F84610002411E0DB
:101A100001A8005D303844492439B1F8461001EB83
:101A2000810100EB410081B23F482438A0F8461004
:101A3000601CC4B2AC42EBDB37488079172816D162
:101A4000002039492439488400240EE001A8005DB3
:101A5000303835492439498C01EB810100EB4100D4
:101A6000314924394884601CC4B2AC42EEDB2A48B8
:101A70004078B1286DD128480079072869D12648D7
:101A80008079032864D19DF8070030389DF806104E
:101A9000303901EB810100EB41002549C8709DF808
:101AA000090030389DF80810303901EB810100EB56
:101AB00041001F4948709DF80B0030389DF80A100E
:101AC000303901EB810100EB410000E0C7E118492A
:101AD00088709DF80D0030389DF80C10303901EBFE
:101AE000810100EB4100134908709DF80F00303868
:101AF0009DF80E10303901EB810100EB41000D49DA
:101B000048709DF8110030389DF81010303901EB05
:101B1000810111E0A0024042CC5801203400002095
:101B2000F00F0020A0110020240300203C00002022
:101B3000280000202400002000EB4100C9498870E3
:101B4000C949002003F0DAF9C649002003F03AFA47
:101B500000BFC6484078B1287ED1C4480079082823
:101B6000FAD1C248807902282BD1002410E001A8C4
:101B7000015DBF48005D3030814205D001A8005DA5
:101B8000BC49095D884201D1781CC7B2601CC4B24F
:101B9000AC42ECDB072D01DB072F08DAB6A20721E8
:101BA000082003F0B7FD4FF0000809E054E1072FCB
:101BB00006D1B4A20721082003F0ACFD4FF00108C4
:101BC0000027AA488079032815D1002405E001A840
:101BD000005D26A90855601CC4B2AC42F7DB072D96
:101BE00007D0ABA20721082003F094FD4FF0000AB4
:101BF00001E04FF0010A9D488079042815D10024A6
:101C000005E001A8005D24A90855601CC4B2AC42DF
:101C1000F7DB072D07D09EA20721082003F07AFDED
:101C20004FF0000A01E04FF0010A90488079052842
:101C30000BD19B4883689BA142680BA808F086F9EA
:101C40000BAA0721082003F065FD88488079062843
:101C500037D1B8F1010F00E036E02AD1BAF1010F17
:101C600027D1002409E026A8005D24A9095D884247
:101C700001D1781CC7B2601CC4B2072CF3DB072F5C
:101C800011D1002407E026A8005D3038C1B27848A1
:101C90000155601CC4B2072CF5DB86A20721082081
:101CA00003F038FD0DE087A20721082003F032FD84
:101CB00007E0B8F1000F04D187A20721082003F044
:101CC00029FD052008F016FD68484078B12822D18A
:101CD0006648007909281ED164488079032807D115
:101CE00001208149087081A20721092003F012FD1B
:101CF0005E48807906280BD15C48007A20B9012023
:101D00005B49491E487603E000205949491E487640
:101D1000052008F0EFFC55484078B1287AD15348A7
:101D200000790B2876D15148807904284DD10024C0
:101D300021E004F108004D49095C4D48005D303058
:101D4000814207D004F108004849085C4949095D0F
:101D5000884201D1781CC7B24548401E007F012847
:101D600007D104F1080041490A5C214663A008F04C
:101D7000DDF8601CC4B2072CDBDB072F12D13C4816
:101D8000401E007F012802D15FA008F0CFF862A2B8
:101D900005210B2003F0BEFC4FF00109052008F0DF
:101DA000A9FC11E03248401E007F012802D15DA04D
:101DB00008F0BCF85FA205210B2003F0ABFC4FF04C
:101DC0000009052008F096FC0027284880790228A1
:101DD0000DD1B9F1010F08D1052008F08BFC0320CB
:101DE000FEF70EFF052008F085FC4FF000091F48A4
:101DF000807903280ED12A4883682AA142680BA85B
:101E000008F0A4F80BAA05210B2003F083FC0520A1
:101E100008F070FC15484078B12819D11348807833
:101E2000012815D146480078092811D10F480079BA
:101E30000E49C97840EA0120424908800C48401EFA
:101E4000007F012804D1084601883FA008F06EF801
:101E500000203B490870002564201AF05DF9FFF767
:101E600036BA00002400002028000020CC580120B1
:101E70000103002050D60108C3DCC2EBB4EDCEF361
:101E8000A3A10000C3DCC2EBD5FDC8B7A3A100002D
:101E9000C3DCC2EBB3A4B6C8B4EDCEF3A3A100007B
:101EA00098410020BCD3C3DCC4DAC2EBA3BA2578C6
:101EB0002D257800C3DCC2EBD0DEB8C4CDEAB3C9AF
:101EC000A3A10000CAE4C8EBC3DCC2EBB2BBD2BB27
:101ED000D6C2A3A100000000D4ADC3DCC2EBB4EDB8
:101EE000CEF3A3A10000000036000020BFAACABCA8
:101EF000B5BCB3F6CAFDBEDD2E2E2E007073256470
:101F00003A25640D0A000000C3DCC2EBD5FDC8B75A
:101F1000A3A10D0A00000000C3DCC2EBD5FDC8B7C9
:101F20002E2E2E00C3DCC2EBB4EDCEF3A3A10D0A1E
:101F300000000000C3DCC2EBB4EDCEF32E2E2E0069
:101F40009900002048000020B5B1C7B0D2B3C3E665
:101F5000A3BA25640D0A0000B2B00027002030901B
:101F6000319000252D902E902F9000BF0C900D9059
:101F70000E9009900A900B9006900790089003909D
:101F8000049005900090019002901BE34FF47A7149
:101F9000012019F06BFE402F01DA781CC7B2002433
:101FA0002BE0FA4830F81400F94901EB8411F94AA2
:101FB000127821F812000020F74941F82400002689
:101FC0000DE0F34800EB841030F91600F24951F8A7
:101FD00024100844F04941F82400701C86B2202ED9
:101FE000EFDBED4951F82400C11700EBD161491135
:101FF000E94A42F82410601C84B2062CD1DBE54883
:102000000078401CE3490870084600781F2801DD6D
:10201000002001E0DF480078DE49087000247FE0FE
:10202000DD4830F82410DD4830F81400081A00B2FA
:10203000DB4921F81400D54830F81410D74830F89F
:102040001400081A00B2D74921F81400CF4830F91B
:102050001400002822DDD24931F91410CF4A103281
:1020600032F8142001FB02F0C11700EB5141C913F3
:1020700009B2CB4A22F81410CA4931F91410C74AE0
:10208000103232F8142001FB02F0C11700EB51416D
:10209000C91309B2C34A22F814103FE0C04830F80F
:1020A0001400404200B2BE4921F8140031F9141066
:1020B000BA4A103232F8142001FB02F0C11700EBCB
:1020C0005141C91309B2B64A22F81410104630F82B
:1020D0001400404200B2114621F81400B14830F813
:1020E0001400404200B2AF4921F8140031F9142025
:1020F000AA49103131F8141002FB01F0C11700EBAE
:102100005141C91309B2A74A22F81410104630F8F9
:102110001400404200B2114621F81400601C84B241
:10212000062CFFF67DAF0A2D11DA00240BE09D4846
:1021300030F8140004EB84010FAA02EB810121F8AE
:102140001500601C84B2062CF1DB681CC5B2402F60
:102150007EDB92482438007D00F00100002877D013
:102160000A2D19DB00240DE00FA9601C31F81000C6
:1021700021F8140014A8611C30F8111020F8141074
:10218000601C84B2092CEFDB86480088ADF84E0055
:10219000844841880FA8C1848248B0F90010804863
:1021A000B0F900003230814208DC7E48B0F90010FE
:1021B0007B48B0F900003238814217DA9DF8B4004C
:1021C000401CC0B28DF8B4009DF8B400052821DB96
:1021D00000208DF8B5009DF8B400C82802DD0A2063
:1021E0008DF8B40001208DF8C00013E09DF8B50013
:1021F000401CC0B28DF8B5009DF8B5000A2809DB77
:1022000000208DF8B4009DF8B500C82802DD0A2032
:102210008DF8B5006348B0F902106148B0F90200CA
:102220003230814208DC5F48B0F902105C48B0F9F6
:1022300002003238814219DA9DF8B600401CC0B263
:102240008DF8B6009DF8B600052823DB002000E0DD
:1022500068E18DF8B7009DF8B600C82802DD0A20B5
:102260008DF8B60001208DF8C10013E09DF8B7008D
:10227000401CC0B28DF8B7009DF8B7000A2809DBF2
:1022800000208DF8B6009DF8B700C82802DD0A20AE
:102290008DF8B7009DF8B400052855DBBDF80000A7
:1022A0000A2812DA00240DE00FA830F81420BDF837
:1022B0000010481C80B2ADF800003B4820F8112007
:1022C000601C84B20A2CEFDBD3E036480288BDF8EC
:1022D0000010481C80B2ADF80000334820F81120EF
:1022E000BDF93010BDF80000401E2F4A32F9100031
:1022F00081420BDABDF80000401E114631F8100093
:10230000ADF83000BDF80000ADF81800BDF924109C
:10231000BDF80000401E244A32F91000814212DD4F
:10232000BDF80000401E114631F9100000280ADBFC
:10233000BDF80000401E31F81000ADF82400BDF8D3
:102340000000ADF80C0094E09DF8B5000A2875DB9C
:102350009DF8C000012847D1BDF80000322843DDB8
:10236000BDF80000401E104931F910100E48B0F9B8
:102370000000C83081421BDDBDF818000A2190FB27
:10238000F1F000B2094908802EE00000B8110020E9
:102390002010002037000020A0110020240300207E
:1023A000F811002038120020B81200207812002006
:1023B000BDF80000401E844931F91000C830B1F961
:1023C0000010884208DABDF80C000A2190FBF1F0F9
:1023D00000B27E49088007E0BDF800000A2190FBAA
:1023E000F1F000B2794908807948B0F90000C828B6
:1023F00008DD7748B0F90200962803DD0120754911
:10240000087029E07248B0F90000C82808DA70485E
:10241000B0F90200962803DD02206E4908701BE027
:102420006B48B0F90000C82809DD6948B0F902001E
:10243000962804DA0320674908700DE019E0644823
:10244000B0F90000C82807DA6148B0F90200962800
:1024500002DA04205F4908700020ADF800008DF812
:10246000C000ADF80C00ADF81800ADF83000ADF8C4
:1024700024009DF8B600052855DBBDF802000A28A7
:1024800012DA00240DE014A830F81410BDF8022070
:10249000501C80B2ADF802004F4820F81210601CAA
:1024A00084B20A2CEFDB88E04C484288BDF8021069
:1024B000481C80B2ADF80200474820F81120BDF951
:1024C0003210BDF80200401E434A32F9100081422A
:1024D0000BDABDF80200401E114631F81000ADF8CD
:1024E0003200BDF80200ADF81A00BDF92610BDF8A3
:1024F0000200401E384A32F9100081425DDDBDF80D
:102500000200401E114631F91000002855DBBDF8CD
:102510000200401E31F81000ADF82600BDF80200A0
:10252000ADF80E0049E09DF8B7000A2845DB9DF89C
:10253000C100012834D1BDF80200322830DDBDF8D9
:102540000200401E244931F910102348B0F9000060
:10255000C830814208DDBDF81A000A2190FBF1F075
:1025600000B21A4948801BE0BDF80200401E1A491B
:1025700031F91000C830B1F90010884208DABDF80E
:102580000E000A2190FBF1F000B21049488007E0EC
:10259000BDF802000A2190FBF1F000B20B4948801F
:1025A0000020ADF802008DF8C100ADF80E00ADF8C6
:1025B0001A00ADF83200ADF8260009480068401C4A
:1025C00007490860E2E40000B812002078120020F9
:1025D000F811002038000020009000103812002070
:1025E0006000002070470000002002213F4A117067
:1025F0000021517606211175002151759175917652
:102600000121117600211177D1765177C021117403
:10261000A82236494A7401228A74CA74C021334AF6
:102620001172A82231494A7201228A721F22CA728B
:10263000FF212E4A1173FF222C494A738A7301220B
:10264000CA730121294A917741F6987111844FF498
:102650001671518400BF07E04FF47A722349643148
:1026600021F81020411CC8B20528F5DB01211F4AC2
:10267000D175002007E044F620621C49343121F86E
:102680001020411CC8B20828F5DB002005E0082214
:102690001649491C0A54411CC8B20728F7DB00211F
:1026A000124AD177002007E04FF47A720F49543173
:1026B00021F81020411CC8B20828F5DB002007E0F3
:1026C0004FF496720949443121F81020411CC8B2D8
:1026D0000828F5DB002006E000220449243121F817
:1026E0001020411CC8B20828F6DB70470003002008
:1026F00010B54948828E00230321052000F0F0F830
:10270000022007F0F7FF4448C28E00230421052071
:1027100000F0E6F8022007F0EDFF3F48028F0023AB
:102720000521084600F0DCF8022007F0E3FF3A48F4
:10273000428F00230621052000F0D2F8022007F086
:10274000D9FF3548828F00230721052000F0C8F803
:10275000022007F0CFFF3048C28F00230821052058
:1027600000F0BEF8022007F0C5FF2C48B0F90020A9
:1027700000230921052000F0B3F8022007F0BAFF7A
:102780002648B0F9022000230A21052000F0A8F80D
:10279000022007F0AFFF2148B0F9042000230B21ED
:1027A000052000F09DF8022007F0A4FF1B48B0F9B7
:1027B000062000230C21052000F092F8022007F0EB
:1027C00099FF1648B0F9082000230D21052000F0DC
:1027D00087F8022007F08EFF1048B0F90A20002386
:1027E0000E21052000F07CF8022007F083FF002373
:1027F0000B4802880221052000F072F8022007F041
:1028000079FF0023074802781221052000F068F8BC
:10281000022007F06FFF10BD00030020F811002018
:102820003C0000203400002000244FF4FA7007F030
:1028300061FF25A20121002002F06CFF4FF4FA7025
:1028400007F058FF0120FEF7DBF90120234908803B
:102850004FF4FA7007F04EFF35E0641C1F48008803
:102860000B281FD2DFE800F01E06091E0C0F121500
:102870001E181B0001F0C2F915E001F0F3FA12E096
:10288000FEF708FA0FE0FFF733FF0CE002F02AF83A
:1028900009E003F08BFA06E002F054FD03E001F0DA
:1028A000D9F800E000BF00BF052007F023FF142087
:1028B00094FBF0F100FB114008B900F0D9FF4FF490
:1028C000FA7019F029FCC8E7CDEAB3C9A3ACBDF88A
:1028D000C8EBCFB5CDB32E2E2E000000480000204F
:1028E0002DE9F04F85B082468B4615461E460024E2
:1028F0000027A046EE222146641C0DF80120B122DB
:102900002146641C0DF8012010222146641C0DF89C
:1029100001204FEA2A222146641C0DF801200AF00A
:10292000FF022146641C0DF801204FEA2B222146AC
:10293000641C0DF801200BF0FF022146641C0DF809
:102940000120002D06DA2D222046611CCCB20DF8A4
:1029500000206D42C248854206DD46222046611CA9
:10296000CCB20DF8002043E1052E00DD0026BD4865
:1029700095FBF0F0002811DDB948401C95FBF0F103
:1029800000FB1150B74990FBF1F03030C2B2204645
:10299000611CCCB20DF80020781CC7B2B24895FB80
:1029A000F0F0002810DDAF4895FBF0F100FB11506E
:1029B000AD4990FBF1F03030C2B22046611CCCB280
:1029C0000DF80020781CC7B2052E17D1B8F1000F02
:1029D00014D137B12E222046611CCCB20DF8002054
:1029E0000BE030222046611CCCB20DF800202E22D4
:1029F0002046611CCCB20DF80020B04642F21070A7
:102A000095FBF0F0002812DD974895FBF0F100FBF4
:102A1000115042F2107190FBF1F03030C2B22046FA
:102A2000611CCCB20DF80020781CC7B208E0B8F1E8
:102A3000000F05D030222046611CCCB20DF80020DA
:102A4000042E17D1B8F1000F14D137B12E22204631
:102A5000611CCCB20DF800200BE030222046611C36
:102A6000CCB20DF800202E222046611CCCB20DF80D
:102A70000020B0464FF47A7095FBF0F0002813DD8B
:102A800042F2107095FBF0F100FB11504FF47A7197
:102A900090FBF1F03030C2B22046611CCCB20DF890
:102AA0000020781CC7B208E0B8F1000F05D0302232
:102AB0002046611CCCB20DF80020032E17D1B8F1CE
:102AC000000F14D137B12E222046611CCCB20DF874
:102AD00000200BE030222046611CCCB20DF8002013
:102AE0002E222046611CCCB20DF80020B046642096
:102AF00095FBF0F0002812DD4FF47A7095FBF0F1B1
:102B000000FB1150642190FBF1F03030C2B220463E
:102B1000611CCCB20DF80020781CC7B208E0B8F1F7
:102B2000000F05D030222046611CCCB20DF80020E9
:102B3000022E17D1B8F1000F14D137B12E22204642
:102B4000611CCCB20DF800200BE030222046611C45
:102B5000CCB20DF800202E222046611CCCB20DF81C
:102B60000020B0460A2095FBF0F0002811DD64201B
:102B700095FBF0F100FB11500A2190FBF1F0303091
:102B8000C2B22046611CCCB20DF80020781CC7B23E
:102B900008E0B8F1000F05D030222046611CCCB20D
:102BA0000DF80020012E17D1B8F1000F14D137B164
:102BB0002E222046611CCCB20DF800200BE0302202
:102BC0002046611CCCB20DF800202E222046611C4C
:102BD000CCB20DF80020B0460A2095FBF0F100FBC6
:102BE00011503030C2B22046611CCCB20DF800202A
:102BF000FF222046611CCCB20DF80020FC222046AA
:102C0000611CCCB20DF80020FF222046611CCCB222
:102C10000DF800202046611CCCB20DF800204FF0CA
:102C2000000908E01DF80900104901F8090009F140
:102C3000010000F0FF09A145F4DB4FF0C0510C4842
:102C4000FEF7AEF920B14FF0C0510948FEF7C8F8C1
:102C50002146074800F0BCFF05B0BDE8F08F00003A
:102C60007F96980040420F00A0860100A0570120E7
:102C70005860024008B53D208DF8000002208DF814
:102C8000010000208DF8020001208DF80300684645
:102C900001F084FD08BD0000014948617047000053
:102CA0000090024029B1064AD2690243044BDA611E
:102CB00004E0034AD2698243014BDA6170470000A5
:102CC0000090024030B10749896941F00201054A8C
:102CD000916105E00349896921F00201014A91618E
:102CE000704700000090024070B50C46134600216A
:102CF000124D286000BF18E000EB41124FF0004574
:102D0000156044F2F4555560C1EBC11505EB45055E
:102D100004EB850595605D1E8D4204D900EB4115DD
:102D20002035D56000E0D060491C9942E4D3044DC1
:102D3000E860044D044E356070BD0000B80000200E
:102D400000900240C05A0120BC00002030B1074969
:102D5000896941F40051054A916105E00349896997
:102D600021F40051014A9161704700000090024037
:102D700030B50C46134600210F4D286000BF15E00A
:102D800000EB41124FF480151560C1EBC11505EB46
:102D9000450504EB850595605D1E8D4204D900EB69
:102DA00041152035D56000E0D060491C9942E7D339
:102DB000024D286130BD0000B400002000900240A8
:102DC00002680A430260704710B50121480601F00D
:102DD00085FE00214FF0007001F080FE10BD01B5AE
:102DE00081B0002000900198009002E00098401E01
:102DF000009000980028F9D10CBD000003488069BC
:102E000040F4801001498861704700000090024042
:102E10000148006880687047B40000200020044921
:102E2000096801F0010109B1012000E000207047AC
:102E30000090024008B50020009069460A480068EA
:102E400019F0F2FF009838B14FF080500749086040
:102E5000BFF34F8FBFF36F8F4020FFF71DFF4FF47D
:102E60008030FFF719FF08BD1802002004ED00E0D4
:102E70002DE9F04186B004460F464FF000080025CA
:102E800000200590954E00909548056925F01C0599
:102E900001A801F083FE029E9248864205D3924823
:102EA000864202D245F008051AE08F48864205D3D3
:102EB0008A48864202D245F00C0511E087488642D6
:102EC00003D38A48864200D20AE08848864205D366
:102ED0008748864202D245F0040501E045F010051E
:102EE0007F4805614FF400420021384600F010FB96
:102EF00018B9002006B0BDE8F0817E48FFF76FFFEB
:102F0000206800284ED000BF0098401C009001218E
:102F1000384600F0D1F900F0040018B9764900985D
:102F20008842F1D374490098884201D10020E1E73A
:102F3000002000904FF480520021384600F0E8FA5B
:102F400008B90020D6E700BF0098401C009001217E
:102F5000384600F0B1F900F0200018B96649009831
:102F60008842F1D364490098884201D10020C1E72A
:102F7000002000901F21384600F09EF9804608F09E
:102F8000100018B14FF40060206201E000202062C0
:102F900008F0040010B10020606116E04FF480409A
:102FA000606112E0206AC0F3CF006169C1F34F0194
:102FB00040EA01020021384600F0AAFA08B90020D0
:102FC00098E76FF07F40FFF70AFF454805684B48D8
:102FD0000540D4E901010843E16808432169084339
:102FE00061690843A1690843E1690843216A08430C
:102FF000616A0843A16A0843E16A0843216B0843F8
:10300000616B0843054336480560D4E90E01084367
:10301000216C0843616C0843A16C0843E16C0843D0
:10302000216D0843616D08432D494860A06D88609B
:10303000E06DC860084685694FF641700540B4F8F8
:103040006010606E40EA0140A16E0843E16E0843E3
:10305000216F0843616F0843054321488561D4E926
:103060001E0108431E49C861254885692548054059
:10307000D4E920010843D4F888100843D4F88C1010
:103080000843D4F890100843D4F894100843D4F8B7
:1030900098100843D4F89C100843D4F8A0100843B3
:1030A000054317488561D4E929010843D4F8AC10D9
:1030B0000843D4F8B0100843D4F8B41040EA8100B3
:1030C000D4F8B810084340F400000D4908600846E1
:1030D000006840F08000086001200BE70087930340
:1030E00000800240002D3101C00E160200E1F505FE
:1030F00080D1F008FFFF0F00FFFF04000F8120FFC9
:1031000000900240233FDEF810B50B794C7943EA7A
:103110000422094B03441A64CB781B068C7843EADB
:1031200004434C7843EA04230C7843EA0402024B3C
:1031300003445A6410BD00000080024010B5B0B0D6
:1031400001214FF0606001F0B9FCFFF73DFE00F097
:1031500037F900BFFFF762FE0128FBD001A800F09D
:1031600049F901200190002008904FF400700B9065
:1031700000200C900F9012901490159016902190B2
:103180004FF000702290001124900020269027908C
:1031900004202990C0052A9040122B9080012C9089
:1031A00040122D9040002F90002101A8FFF760FEF3
:1031B000C4B2012C03D101210248FFF773FD204660
:1031C00030B010BD4000010030B10749096841F03E
:1031D0000401054A116005E00349096821F0040172
:1031E000014A1160704700000080024030B1074979
:1031F000096841F00801054A116005E003490968C2
:1032000021F00801014A116070470000008002406F
:1032100010B50A48016800200FF00EFA084801684E
:1032200000200FF009FA0748016800200FF004FAA7
:103230000548016800200FF0FFF910BD8400002050
:10324000880000208C0000209000002010B5A021F4
:1032500000200FF003FA14490860A02100200FF0AD
:10326000FDF91249086041F6C45100200FF0F6F94B
:103270000F49086041F6C45100200FF0EFF90D49E5
:1032800008600948006840B10848006828B108484B
:10329000006810B10846006818B9FFF7B9FF0120AF
:1032A00010BD0020FCE70000840000208800002002
:1032B0008C0000209000002018B502460B4600212B
:1032C000002000901548016901F01C014FF478407E
:1032D00000EAC22001434FF4F86000EA8310014382
:1032E00021F0020141F001010C48016100BF00988A
:1032F000401C00900948016901F0010018B1084C18
:103300000098A042F3D3064C0098A04201D10020BF
:1033100018BD0248406980B2FAE700000080024010
:10332000FFFF04001EB500210022009201920292CC
:10333000214A1268126802F0004282B10022009213
:103340001E4A526902F0800222B180221B4B5A6150
:1033500000229A609DE81C0080E81C001EBD164AF1
:103360001268126802F40042B2B9134A1268126875
:1033700002F4807282B1104A1268126802F400727C
:1033800052B10D4A12681268C2F30D42111F0A4A67
:1033900012689268019200E000210091064A1268CA
:1033A0000292054A1268D268034B1A609DE81C001D
:1033B00080E81C0000BFD1E7B80000200090024068
:1033C0000348006840F001000149086070470000B0
:1033D0000090024000B50120FFF708FFFFF70EFD47
:1033E0000120FFF7F1FE0120FFF7B0FC0120FFF7FD
:1033F00069FC00BD01210160002141608160C16064
:1034000001614FF48041416100218161C1614FF44C
:1034100000610162002141628162C1620163416316
:103420008163C163402101642021416400218164E2
:10343000C164016541658165C165016680214166A0
:1034400000218166C166016741678167C1674FF0EE
:103450008061C0F880104910C0F884100021C0F8C5
:1034600088104FF40011C0F88C100021C0F89010A3
:10347000C0F89410C0F89810C0F89C10C0F8A010C4
:103480004FF00071C0F8A4104912C0F8A8108901CB
:10349000C0F8AC104912C0F8B0100021C0F8B41048
:1034A000C0F8B8107047000001461748006800686F
:1034B00000F0004008B100207047C1F30C00124A30
:1034C0001268506010480068006840F040500E4A92
:1034D000126810600C480068006840F000400A4A1A
:1034E000126810600948406900F0040020B104200F
:1034F000064A50610020506003480068C068024AD4
:1035000010600120D8E70000B400002000900240C5
:1035100038B503460C46002100200090144801698C
:1035200001F01C014FF4784000EAC32001434FF43E
:10353000F86000EA8410014341F0020141F001010A
:103540000B484261016100BF0098401C0090084890
:10355000016901F0010018B1064D0098A842F3D3AB
:10356000044D0098A84201D1002038BD0120FCE79D
:1035700000800240FFFF040008B54FF4005000F047
:1035800025F8B8B1FDF704FA0B48006870B1694638
:103590000948006818F086FE009838B14FF0805056
:1035A00006490860BFF34F8FBFF36F8F4FF4005091
:1035B00000F006F808BD00000400002004ED00E063
:1035C0000149086070470000143C0140014600209A
:1035D000034A12680A400AB1012000E00020704747
:1035E000143C0140002123498279002A3AD00A463E
:1035F000126803689A430B461A600A1D1268036832
:103600009A430B1D1A60027911440A6803681A4331
:103610000A60184A0832126803689A43154B083347
:103620001A601A1D126803689A43124B0C331A6011
:103630004279102A0ED11A1F126803681A430D4BE3
:1036400008331A601A1D126803681A43094B0C33B9
:103650001A600DE00749427911440A6803681A4369
:103660000A6005E0027911440A6803689A430A6017
:1036700070470000003C014051B18200A2F1C042FD
:10368000126842F001038200A2F1C042136009E017
:103690008200A2F1C0421268034B1A408300A3F1DA
:1036A000C0431A6070470000FEFF0F00D0E901120E
:1036B0001143C2681143026911434269114382698F
:1036C0001143C2691143026A1143426A1143826A7B
:1036D0001143C26A1143026B114302689200A2F1C6
:1036E000C0421160816808290BD101688900A1F1ED
:1036F000C041096841F0400201688900A1F1C04160
:103700000A60416B0968426B526841EA0211426BE0
:10371000926841EA0221426B928941EA0241426B7E
:10372000128A41EA0251426B127D41EA0261426B08
:10373000926911430268521C9200A2F1C0421160CA
:10374000C16AB1F5804F1BD1816B0968826B5268E9
:1037500041EA0211826B926841EA0221826B128A6D
:1037600041EA0251826B127D41EA0261826B9269E9
:10377000114302689200A2F1C042C2F8041107E0AE
:103780006FF0704201688900A1F1C041C1F80421C5
:103790007047F0B50A4600210023002400BF3DE039
:1037A000012505FA01F3156805EA03049C4234D1AA
:1037B00005684F000326BE40B543056015794E00ED
:1037C000B5400668354305601579012D02D015799D
:1037D000022D16D185684F000326BE40B543856093
:1037E00055794E00B54086683543856045680126A9
:1037F0008E40B5434560456896798E40B6B23543F4
:103800004560C5684F000326BE40B543C560D57905
:103810004E00B540C6683543C560491C1029BFD36A
:10382000F0BDF0B5002300244D07ED0E02FA05F3BC
:10383000CE1000F1200555F826504E07F70E0F2642
:10384000BE40B543CF1000F1200646F82750CE10F9
:1038500000F1200555F8265045EA0304CE1000F18A
:10386000200545F82640F0BD41837047018370472D
:1038700030B585B00024EE222146641C0DF80120ED
:10388000B1222146641C0DF8012001222146641C4E
:103890000DF80120FF222146641C0DF80120FC22B6
:1038A0002146641C0DF80120FF222146641C0DF8FE
:1038B00001202146641C0DF80120002505E01DF8BB
:1038C00005000B494855681CC5B2A542F7DB4FF00F
:1038D000C0510848FDF764FB20B14FF0C0510548C6
:1038E000FDF77EFA2146034800F072F905B030BDBD
:1038F000A05701205860024001464869806880B2A4
:10390000704708B50146D1F8CC00006800900098D7
:10391000C0F3414008BD024602F29B30405C704754
:10392000024602F5547050F82100704770B5044605
:103930000E4600250021C4F8101300BF0BE0002143
:1039400004F5457040F825103C3040F825103C3017
:103950004155681CC5B20F2DF1DB0821A4F8B21344
:103960003146204605F064F9204604F06BFD204600
:1039700004F032FC0121204605F0C2F9204604F093
:10398000BEFC204604F0B7FD002070BD0146D1F812
:103990001003704710B50446204605F028F90020B2
:1039A00010BD70B504460D46002104F29B30415510
:1039B000113000EB451041612946204604F0C6FF56
:1039C00070BD00BFFEE700008CB025E01348007812
:1039D00040F08000114908701149002001F024FADC
:1039E0000F48807800900E48437802780DA102A815
:1039F00006F0ACFA1049002001F0F0F90E4880788A
:103A000000900D484378C2780CA102A806F09EFAF7
:103A10004FF47A7018F080FBD8E70000FC0100201A
:103A20001C00002054696D653A253032643A253017
:103A300032643A253032640020000020446174650D
:103A40003A3230253032642D253032642D25303223
:103A50006400000010B50848032102680A2001F044
:103A600059FE022006F046FE02210A2001F034FD34
:103A7000022006F03FFE10BD400000201CB50024CF
:103A800001214D2001F01AF80121880301F076F898
:103A9000012001F031FC8620009003208DF8050004
:103AA00002208DF8040000208DF806008DF8070034
:103AB00069463148FFF76DFE0B2201212E48FFF7C2
:103AC000B0FE0B2202212C48FFF7ABFE0B22072190
:103AD0002948FFF7A6FE3220009069462748FFF7E5
:103AE00058FE0B2201212548FFF79BFE0B220421E3
:103AF0002248FFF796FE0B2205212048FFF791FE92
:103B00004FF4D040009069461D48FFF742FE0B225B
:103B100011461B48FFF785FE0B220D211848FFF7C1
:103B200080FE0B220E211648FFF77BFE0820009036
:103B300003208DF8050001208DF8040000208DF889
:103B400006008DF8070069460E48FFF722FE0020A8
:103B50000D490860322006F0CDFD01200B49C1F867
:103B60008C02FFF787F8FFF7E9FA04460CB9012049
:103B70001CBD0020FCE700000000024000080240DD
:103B800000180240000C02408C82414200804142F9
:103B90001CB50121202000F091FF4FF4C06000907F
:103BA00001208DF8040000208DF8060003208DF818
:103BB000050001208DF8070069460448FFF7E9FD7C
:103BC0004FF4C0610148FFF751FE1CBD00140240D4
:103BD00070B504460D4600212046FDF71BF900BFD5
:103BE0002046FDF7CFF90028FAD129462046FDF7F7
:103BF00025FA01212046FDF70DF970BD10B5844866
:103C0000007D00F00100002866D08248B0F9002055
:103C1000002303210120FEF763FE022006F06AFD67
:103C20007C48B0F90220002304210120FEF758FE51
:103C3000022006F05FFD7848008841F2883110FBD1
:103C400001F4E01704EB5040C213032309210120C3
:103C5000FEF746FE022006F04DFD6F48408841F217
:103C6000883110FB01F4E01704EB5040C21303232A
:103C70000A210120FEF734FE022006F03BFD6748D2
:103C80000078012806D002280AD003280ED0042884
:103C900018D111E062A21121012001F03BFD17E0D3
:103CA00062A21121012001F035FD11E062A2112173
:103CB000012001F02FFD0BE062A21121012001F093
:103CC00029FD05E062A21121012001F023FD00BFC2
:103CD00000BF022006F00EFD4D48007D00F00200FE
:103CE000002841D04B48B0F90420002305210120D1
:103CF000FEF7F6FD022006F0FDFC4648B0F906206E
:103D0000002306210120FEF7EBFD022006F0F2FC65
:103D10004148808841F2883110FB01F4E01704EB40
:103D20005040C21303230B210120FEF7D9FD0220CE
:103D300006F0E0FC3848C08841F2883110FB01F4FD
:103D4000E01704EB5040C21303230C210120FEF7BF
:103D5000C7FD022006F0CEFC3FA21221012001F097
:103D6000D9FC022006F0C6FC2948007D00F00400C2
:103D7000002841D02748B0F908200023072101205E
:103D8000FEF7AEFD022006F0B5FC2248B0F90A208D
:103D9000002308210120FEF7A3FD022006F0AAFC63
:103DA0001D48008941F2883110FB01F4E01704EB53
:103DB0005040C21303230D210120FEF791FD022084
:103DC00006F098FC1448408941F2883110FB01F458
:103DD000E01704EB5040C21303230E210120FEF72D
:103DE0007FFD022006F086FC1BA21321012001F0BA
:103DF00091FC022006F07EFC01231948B0F9002056
:103E00000F211846FEF76CFD022006F073FC10BD72
:103E100000030020F8110020B81100203800002015
:103E2000BACFD5A2D2D1B4A2C4DC0000BACFD5A2F9
:103E3000CEB4B4A2C4DC0000B7D6D5A2D2D1B4A20D
:103E4000C4DC0000B7D6D5A2CEB4B4A2C4DC000056
:103E5000C6E4CBFC00000000B7D6D5A200000000ED
:103E60002C00002010B58C48007D00F001000028D7
:103E700072D08A48B0F90020002305210220FEF705
:103E80002FFD022006F036FC8448B0F90220002302
:103E900006210220FEF724FD022006F02BFC7F48BD
:103EA000B0F90000002812DD7B48408C00EB800058
:103EB00040007A49B1F9001090FBF1F4002322464A
:103EC0000B210220FEF70CFD022006F013FC7348C4
:103ED000B0F90200002812DD6F48408C00EB800032
:103EE00040006E49B1F9021090FBF1F40023224624
:103EF0000C210220FEF7F4FC022006F0FBFB6848D0
:103F00000078012806D002280AD003280ED0042801
:103F100018D111E063A21121012001F0FBFB17E091
:103F200063A21121012001F0F5FB11E063A2112130
:103F3000012001F0EFFB0BE063A21121012001F051
:103F4000E9FB05E063A21121012001F0E3FB00BFC2
:103F500000BF022006F0CEFB4F48007D00F00200BB
:103F6000002843D04D48B0F9042000230721022047
:103F7000FEF7B6FC022006F0BDFB4848B0F906206B
:103F8000002308210220FEF7ABFC022006F0B2FB62
:103F90004148408C00EB800040004049B1F90410DA
:103FA00090FBF1F4002322460D210220FEF798FC3D
:103FB000022006F09FFB3848408C00EB8000400058
:103FC0003649B1F9061090FBF1F4002322460E2188
:103FD0000220FEF785FC022006F08CFB3FA2142194
:103FE000022001F097FB022006F084FB2A48007DA6
:103FF00000F00400002843D02848B0F9082000232E
:1040000009210220FEF76CFC022006F073FB234816
:10401000B0F90A2000230A210220FEF761FC0220E9
:1040200006F068FB1C48408C00EB800040001B49F8
:10403000B1F9081090FBF1F4002322460F21022071
:10404000FEF74EFC022006F055FB1348408C00EBB7
:10405000800040001149B1F90A1090FBF1F40023EF
:10406000224610210220FEF73BFC022006F042FB14
:104070001AA21521022001F04DFB022006F03AFBA6
:104080000548428C022311211846FEF729FC022024
:1040900006F030FB10BD0000000300207812002065
:1040A00038000020BACFD5A2D2D1B4A2C4DC00001F
:1040B000BACFD5A2CEB4B4A2C4DC0000B7D6D5A284
:1040C000D2D1B4A2C4DC0000B7D6D5A2CEB4B4A27B
:1040D000C4DC0000C6E4CBFC00000000B7D6D5A2CB
:1040E0000000000000BFFEE7FEB5074600240025E3
:1040F00000266B4807F086FF00206A4988756AA091
:1041000005F014FFC6E072A005F010FF6448446893
:104110008568C668002C4DD0022062498875084623
:10412000407909795F4AD278CDE9002102905D4853
:104130008378427801786BA005F0F8FE210E59488B
:104140004173210C0173210AC17201468C72407BBC
:1041500000900846037BC27A817A70A005F0E6FEE3
:10416000290E50484174290C0174290AC173014673
:104170008D73407C00900846037CC27B817B73A0DA
:1041800005F0D4FE310E47484175310C0175310AF6
:10419000C17401468E74407D00900846037DC27C48
:1041A000817C76A005F0C2FE01208049087000F0F5
:1041B0007FF970E03A48006A407B022866DDFF2004
:1041C000384988750846407B01063648007B41EA3D
:1041D00000413448C07A41EA00203249897A0843D4
:1041E0002F4948602F48407C01062E48007C41EA58
:1041F00000412C48C07B41EA00202A49897B0843C2
:10420000274988602748407D01062648007D41EA0D
:1042100000412448C07C41EA00202249897C0843AF
:104220001F49C86062A005F081FE1E4840791D4903
:1042300009791C4AD278CDE9002102901948837887
:104240004278017827A005F071FE1648407B009067
:104250001448037BC27A817A5DA005F067FE11489D
:10426000407C00900F48037CC27B817B64A005F0FA
:104270005DFE0C48407D00900A48037DC27C817C35
:104280006BA005F053FE00F013F904E04FF4FA7050
:1042900006F030FA37E700BF00F0FCF8FEBD000082
:1042A00088B5012070B50120D5FDD4DAB2E9D5D2A8
:1042B00044484350B7FECEF1C6F72CC7EBC9D4B57E
:1042C000C82E2E2E2E2E2E2E2E2E2E2E0D0A000015
:1042D000D5FDD4DABBF1C8A1B5D8D6B72E2E2E0D98
:1042E0000A000000CDF8BFA8656EB5C44D4143B5C6
:1042F000D8D6B7CEAA3A2E2E2E2E2E2E2E2E2E2EDB
:104300002E2E2E2E2E2E25642E25642E25642E254F
:10431000642E25642E25640D0A000000CDA8B9FD89
:1043200044484350BBF1C8A1B5BD4950B5D8D6B734
:104330002E2E2E2E2E2E2E2E2E2E2E2E2E2E256470
:104340002E25642E25642E25640D0A00CDA8B9FD06
:1043500044484350BBF1C8A1B5BDD7D3CDF8D1DA9D
:10436000C2EB2E2E2E2E2E2E2E2E2E2E2E2E2564EF
:104370002E25642E25642E25640D0A00CDA8B9FDD6
:1043800044484350BBF1C8A1B5BDB5C4C4ACC8CF07
:10439000CDF8B9D82E2E2E2E2E2E2E2E2E2E256472
:1043A0002E25642E25642E25640D0A00E8010020C8
:1043B00044484350B7FECEF1B3ACCAB12CCAB9D30E
:1043C000C3BEB2CCAC4950B5D8D6B7210D0A000057
:1043D000BEB2CCAC4950B5D8D6B72E2E2E2E2E2E2E
:1043E0002E2E2E2E2E2E2E2E2E2E2E2E2E2E2E2EED
:1043F0002E2E25642E25642E25642E25640D0A009C
:10440000D7D3CDF8D1DAC2EB2E2E2E2E2E2E2E2E75
:104410002E2E2E2E2E2E2E2E2E2E2E2E2E2E2E2EBC
:104420002E2E25642E25642E25642E25640D0A006B
:10443000C4ACC8CFCDF8B9D82E2E2E2E2E2E2E2EAF
:104440002E2E2E2E2E2E2E2E2E2E2E2E2E2E2E2E8C
:104450002E2E25642E25642E25642E25640D0A003B
:104460001CB517F0A9FC06480E2100238022CDE9D7
:10447000001004A1064818F013FE17F0E1FC1CBD63
:1044800000020020646863705F7461736B00000059
:10449000E940000810B5044807F094FE034800689E
:1044A00017F074FE10BD000088B501200002002046
:1044B0001CB517F081FC07480D2100234FF49672BC
:1044C000CDE9001004A1074818F0EAFD17F0B8FC88
:1044D0001CBD000004020020544350535F746173FC
:1044E0006B000000E944000886B000250022114658
:1044F00010200EF08FFD814641F698725F494846C4
:104500000EF03AFAFF2148460EF022FD0A20C9F8C3
:104510001C00B2E008F101001FFA80F804A9484627
:104520000EF0CAF80646C82098FBF0F100FB118097
:1045300018B9314652A005F0F9FC16B90A200499C1
:10454000C861002EE5D10023514A524904980EF06B
:1045500059FC50480068000E8DF817004D4800685F
:10456000000C8DF816004B480088000A8DF81500E5
:10457000484800788DF81400454801889DF81700D8
:10458000CDE900019DF816309DF815209DF8141016
:1045900041A005F0CBFC6DE04B48007800F08000B6
:1045A000802818D149480068FBF796FE8246002013
:1045B0000123524600904548016804980EF0D8FF48
:1045C000064616B142A005F0B1FC3F48007820F045
:1045D00080003D49087003A904980EF0E7FD0746E6
:1045E000002F31D117F0E8FB4FF4FA613B48FBF79D
:1045F0005CFE0398046819E06089C5F5FA61884299
:1046000007D9C5F5FA62354B58196168FBF734FED6
:1046100005E06289314B58196168FBF72DFE60890E
:104620000544B5F5FA6F00D902E02468002CE3D107
:1046300000BF17F005FC0025284929A005F076FCED
:1046400003980EF029F815E007F10C0090B90498D2
:104650000EF0F6F904980EF05DFA9DF81700009040
:104660009DF816309DF815209DF814101EA005F039
:104670005DFC00E090E700BF00BF4BE784830408C7
:1046800045727220636F64653A2025640D0A00004C
:104690001402002010020020D6F7BBFA25642E2554
:1046A000642E25642E2564C1ACBDD3C9CFB7FECE20
:1046B000F1C6F72CD6F7BBFAB6CBBFDABAC5CEAA8D
:1046C0003A25640D0A000000FC010020F8010020DA
:1046D000B7A2CBCDCAA7B0DC0D0A0000BCB5012043
:1046E00025730D0A00000000D6F7BBFA3A25642EA8
:1046F00025642E25642E2564B6CFBFAAD3EBB7FE62
:10470000CEF1C6F7B5C4C1ACBDD30D0A00000000A0
:104710003EB541F6FF740121080700F00FFA0120B1
:1047200000F0DAF8002000F0D9FB45F25001884291
:1047300031D0012000F0C6FA04E0601C84B20A20E7
:1047400006F01CF8412000F09DFA0028F5D00CB9C5
:1047500001203EBD4FF4807000F0D0FA012000F03F
:10476000C7FA7F200190FF20029000200090684649
:1047700000F082FB002338223B21172000F09CFC34
:104780000123052211460E2000F084FC45F2500161
:10479000002000F0D9FC0020DBE7704770B5002155
:1047A00000230F22C4781CB3174C246804F4E0647F
:1047B000C4F5E064C4F30721C1F10404E3B20A4183
:1047C00044789C40E1B28478144021430C07210EC8
:1047D0000E4C05786155047804F01F050124AC40A7
:1047E00005786D11AD0005F1E025C5F8004109E03F
:1047F000047804F01F050124AC40054D06787611BD
:1048000045F8264070BD00000CED00E000E400E03B
:1048100080E100E002490143024A11607047000054
:104820000000FA050CED00E010B5024802F0BEFFF2
:1048300010BD0000384200201CB50121202000F0EE
:104840003DF94FF46040009001208DF804000020F5
:104850008DF8060003208DF8050002208DF8070072
:1048600069460448FEF795FF4FF480710148FEF752
:10487000FBFF1CBD0014024000244FF480610020A7
:104880000DF0ECFE044613E024B12A4609A12046AF
:1048900005F05CFB0D4804600D490E4803F022F959
:1048A000012005F027FF681CC5B2C82017F034FCB2
:1048B000EAE700004D656D6F7279204D616C6C6F99
:1048C0006320546573742530336400003000002089
:1048D000A4410020384200200149086270470000CE
:1048E00000000E4210B56248B0F862200023082193
:1048F0000620FDF7F5FF022005F0FCFE5C48407D38
:1049000030B1012806D0022806D0032808D105E0DE
:1049100058A40AE059A408E05AA406E05BA404E005
:1049200000205349487553A400BF00BF2246092107
:10493000062000F0EFFE022005F0DCFE4C48807DF2
:10494000012805D153A20A21062000F0E3FE04E06D
:1049500052A20A21062000F0DDFE022005F0CAFE68
:104960004348007E20B1012804D0022806D103E08C
:104970004CA408E04DA406E04EA404E001203C490C
:1049800008764AA400BF00BF22460B21062000F093
:10499000C1FE022005F0AEFE3548C07D012805D1DC
:1049A0003CA20C21062000F0B5FE04E03BA20C2145
:1049B000062000F0AFFE022005F09CFE2C48B0F867
:1049C000442000230D210620FDF78AFF022005F078
:1049D00091FE2748B0F8462000230E210620FDF75F
:1049E0007FFF022005F086FE2148428C002317211C
:1049F0000620FDF775FF022005F07CFE1C48007DB7
:104A000000F0010028B123A20521062000F082FE5B
:104A100004E022A20521062000F07CFE022005F021
:104A200069FE1348007D00F0020028B119A206219A
:104A3000084600F06FFE04E018A20621084600F0C8
:104A400069FE022005F056FE0948007D00F00400D2
:104A500028B110A20721062000F05CFE04E00FA29E
:104A60000721062000F056FE022005F043FE10BD8F
:104A700000030020B5A5BBFA00000000B2A2CDF8EB
:104A800000000000B2E2CAD400000000B1B8D3C3F5
:104A900000000000B4F2BFAA00000000B9D8B1D5F0
:104AA000000000003936303000000000313135326E
:104AB00030300000323330343030000029B1064A43
:104AC00012680243044B1A6004E0034A12688243EE
:104AD000014B1A60704700003038024029B1064A85
:104AE00012680243044B1A6004E0034A12688243CE
:104AF000014B1A60704700001038024029B1064A85
:104B000012680243044B1A6004E0034A12688243AD
:104B1000014B1A60704700003438024029B1064A40
:104B200012680243044B1A6004E0034A126882438D
:104B3000014B1A60704700003838024029B1064A1C
:104B400012680243044B1A6004E0034A126882436D
:104B5000014B1A60704700004038024029B1064AF4
:104B600012680243044B1A6004E0034A126882434D
:104B7000014B1A60704700002038024029B1064AF4
:104B800012680243044B1A6004E0034A126882432D
:104B9000014B1A607047000044380240F0B5002114
:104BA00000220024022500260223324F3F6807F02E
:104BB0000C0121B1042905D0082937D105E02E4F79
:104BC000076036E02D4F076033E02A4F3F1F3F68F4
:104BD000C7F38056274F3F1F3F6807F03F036EB172
:104BE000264FB7FBF3F7DFF88CC0ACF1040CDCF810
:104BF00000C0CCF3881C07FB0CF40CE01E4FB7FB85
:104C0000F3F7DFF870C0ACF1040CDCF800C0CCF3B3
:104C1000881C07FB0CF4174F3F1F3F68C7F3014781
:104C20007F1C7D00B4FBF5F7076002E0124F0760C0
:104C300000BF00BF0F4F3F6807F0F0010909104F98
:104C40007A5C0768D74047600A4F3F6807F4E05135
:104C5000890A0B4F7A5C4768D7408760054F3F68E9
:104C600007F46041490B064F7A5C4768D740C7603C
:104C7000F0BD0000083802400024F40000127A0061
:104C8000A400002010B501460022002300204A1194
:104C9000012A02D10A4C236808E0022A03D1084CF9
:104CA0007034236802E0064C7434236801F01F025C
:104CB000012494401C400CB1012000E0002010BDF4
:104CC000003802400021094A11701170012802D0F9
:104CD000042808D103E00121044A117004E00521F1
:104CE000024A117000E000BF00BF704770380240F8
:104CF00001490860704700003C0E4742002100F463
:104D00004072B2F5407F08D1094A116821F4F811C8
:104D1000084A02401143064A1160054A6832126887
:104D2000C0F30B031A43024B68331A60704700004C
:104D300008380240FFFCFF0F10B54FF40030FEF7BB
:104D40003FFC10BD014600BF080900EB8000420097
:104D500001F00F001044C0B270470146002204E089
:104D6000501CC2B2A1F10A00C1B20A29F8DA100738
:104D700041EA10607047000008B500220092002050
:104D80000021104A126802F04002CAB9421E0D4BBF
:104D90001A6000BF0B4A126802F04001009A521CD0
:104DA0000092009AB2F5803F01D00029F2D0054A66
:104DB000126802F040020AB1012002E0002000E087
:104DC000012008BD0C2800400348006820F0800046
:104DD00001490860704700000C28004070B5064685
:104DE0000C4600250E4800680E4900EA0105280C13
:104DF000E070C5F30420607005F03F00A070C5F3BB
:104E0000423020705EB9E078FFF79CFFE070607878
:104E1000FFF798FF6070A078FFF794FFA07070BD57
:104E2000042800403FFFFF0070B506460C460025F1
:104E30000F4800680F4900EA0105C5F305402070DE
:104E4000C5F30620607005F07F00A07005F48000B7
:104E5000000CE0705EB92078FFF774FF2070607876
:104E6000FFF770FF6070A078FFF76CFFA07070BD57
:104E7000002800407F7F7F0030B504460025CA200F
:104E80001549086053200860FFF776FF00B91DE060
:104E900011481C38006820F040000F491C39086098
:104EA00008460068216808430B491C3908600A4914
:104EB0001439A068086008460068A18840EA0140EB
:104EC000054914390860FFF77FFF0125FF200249DB
:104ED0000860284630BD00002428004008B501467F
:104EE0000020009004480090009800EB81000090A2
:104EF0000098006808BD0000502800402DE9F041EE
:104F000005460C46002600274DB9607800F01000D9
:104F1000102804D1607820F010000A30607005B9C4
:104F200008E06078FFF70EFF0646A078FFF70AFF5B
:104F3000064600BF55B1E0780004617840EA0120E0
:104F4000A1780843217840EA413611E0E078FFF784
:104F500004FF4FEA00486078FFF7FFFE48EA0028A8
:104F6000A078FFF7FAFE48EA0008207848EA4036C1
:104F7000CA201249086053200860FFF7FDFE08B9F7
:104F8000002714E00E4830400C4920390860FFF734
:104F90001BFF0A481C38006800F0200030B900F000
:104FA000A3F808B9002702E0012700E00127FF204D
:104FB000024908603846BDE8F0810000242800401E
:104FC0003FFFFF002DE9F04105460C460026002773
:104FD0004DB92E48006800F0400000B102E000200A
:104FE000E07000BF0DE02948006800F0400020B1EB
:104FF0002078FFF7A7FE064602E00020E07000BF21
:1050000000BF55B120780004617840EA0120A17802
:105010000843E17840EA014611E02078FFF79DFE61
:105020004FEA00486078FFF798FE48EA0028A07829
:10503000FFF793FE48EA0008E07848EA0046CA20F5
:1050400012491C31086053200860FFF795FE08B92B
:10505000002713E00E4830400C4908390860FFF77C
:10506000B3FE0A48006800F0200030B900F03CF8B8
:1050700008B9002702E0012700E00127FF200349CB
:105080001C3108603846BDE8F08100000828004067
:105090007F7F7F00F8B504460D4617461E468DF803
:1050A00002708DF801508DF800608DF8034069465C
:1050B0000020FFF723FFF8BDF8B504460D4617465C
:1050C0001E468DF800408DF801508DF802708DF865
:1050D000036069460020FFF775FFF8BD10B54FF477
:1050E0008000FEF76DFA10BD08B500220092002086
:1050F0000021CA22134B1A6053221A60114A183A2F
:10510000126822F0A0020F4B183B1A6000BF0D4A34
:10511000183A126802F02001009A521C0092009A7C
:10512000B2F5003F01D00029F1D0064A183A1268C2
:1051300002F020020AB1012000E00020FF22014B12
:105140001A6008BD2428004008B500220092044AD5
:105150000092009A02EB80020092009A116008BD52
:105160005028004000B587B001210220FFF7A6FCBF
:1051700001218803FFF7E2FC4FF460400590022014
:105180008DF8180000208DF81A0003208DF8190002
:1051900001208DF81B0005A92148FEF7FAFA052227
:1051A0000D211F48FEF73DFB05220E211C48FEF78E
:1051B00038FB05220F211A48FEF733FB0121880333
:1051C000FFF7CCFC00214FF48040FFF7C7FC002024
:1051D000ADF800004FF48270ADF802000020ADF889
:1051E00004000220ADF806000120ADF808004002DE
:1051F000ADF80A003820ADF80C000020ADF80E0024
:105200000720ADF810006946064800F057F8012164
:10521000044800F039F8FF2000F006F807B000BDA0
:10522000000402400038004010B5044600BF0221CF
:105230000A4800F035F80028F9D02146074800F068
:105240003BF800BF0121054800F02AF80028F9D0FA
:10525000024800F02EF8C0B210BD00000038004037
:1052600010B50446074800884FF6C7710840054945
:10527000088008460088204308800121014800F08A
:1052800003F810BD0038004021B1028842F040020E
:10529000028004E002884FF6BF731A400280704714
:1052A0000246002013890B400BB1012000E00020D2
:1052B00070470146888970478181704710B5002288
:1052C000028802F441520B884C8823438C88234384
:1052D000CC8823430C8923434C8923438C89234363
:1052E000CC8923431A430280838B4FF2FF742340FF
:1052F00083830B8A038210BD014908607047000058
:10530000DC00274230B500228B071C0F0F2303FA65
:1053100004F20B4B8C1053F824309343084C8D103F
:1053200044F8253023468C1053F824308C07240F82
:1053300000FA04F42343024C8D1044F8253030BDAC
:105340000838014010B51A48407E012805D119A23D
:105350000521092000F0DEF904E018A2052109204A
:1053600000F0D8F9022005F0C5F9164800780128A8
:1053700005D115A20221092000F0CCF904E014A205
:105380000221092000F0C6F9022005F0B3F9124805
:105390000078022807D111A20721092000F0BAF9EC
:1053A00000200D490870022005F0A4F910BD00008E
:1053B00000030020B4F2BFAA00000000B9D8B1D5A4
:1053C0000000000035000020D2D1C1ACBDD30000E8
:1053D000CEB4B7A2CFD6000036000020CAFDBEDD95
:1053E000B5BCB3F6CDEAB3C9A3A100000CB500204B
:1053F000019000903448006840F4803032490860E1
:1054000000BF3148006800F4003000900198401C53
:105410000190009818B90198B0F5A04FF1D12A4831
:10542000006800F4003010B10120009001E000207D
:1054300000900098012846D123484030006840F091
:1054400080502149403108602048006840F44040C5
:105450001E4908601C48083000681B490831086074
:105460000846006840F4004008600846006840F4C0
:10547000A05008601648091F0860081F006840F027
:105480008070091F086000BF0F48006800F00070BE
:105490000028F9D040F205700E4908600A4808302B
:1054A000006820F0030008490831086008460068D9
:1054B00040F00200086000BF03480830006800F0B8
:1054C0000C000828F8D10CBD0038024000700040E4
:1054D00008544007003C0240F0B585B006460F4630
:1054E0000024EE222146641C0DF80120B122214641
:1054F000641C0DF8012010222146641C0DF80120C7
:1055000032122146641C0DF80120F2B22146641CBF
:105510000DF801203A122146641C0DF80120FAB260
:105520002146641C0DF8012056222046611CCCB295
:105530000DF8002065222046611CCCB20DF8002039
:1055400072222046611CCCB20DF800203A2220467F
:10555000611CCCB20DF800206B48007864280BDD8C
:1055600069480078642190FBF1F03030C2B22046E7
:10557000611CCCB20DF80020634800780A2810DDC9
:1055800061480078642190FBF1F201FB12000A21CE
:1055900090FBF1F03030C2B22046611CCCB20DF865
:1055A0000020594800780A2190FBF1F201FB12001B
:1055B0003030C2B22046611CCCB20DF800202E2241
:1055C0002046611CCCB20DF800204F48407864287A
:1055D0000BDD4D484078642190FBF1F03030C2B2D1
:1055E0002046611CCCB20DF80020474840780A28BC
:1055F00010DD45484078642190FBF1F201FB120078
:105600000A2190FBF1F03030C2B22046611CCCB2CE
:105610000DF800203C4840780A2190FBF1F201FB94
:1056200012003030C2B22046611CCCB20DF800200E
:105630002E222046611CCCB20DF800203248807822
:1056400064280BDD30488078642190FBF1F0303025
:10565000C2B22046611CCCB20DF800202A488078E6
:105660000A2810DD28488078642190FBF1F201FBC4
:1056700012000A2190FBF1F03030C2B22046611CCA
:10568000CCB20DF80020204880780A2190FBF1F27E
:1056900001FB12003030C2B22046611CCCB20DF8C2
:1056A0000020FF222046611CCCB20DF80020FC2215
:1056B0002046611CCCB20DF80020FF222046611C60
:1056C000CCB20DF800202046611CCCB20DF80020B1
:1056D000002505E01DF805000C494855681CC5B2B9
:1056E000A542F7DB4FF0C0510948FBF759FC20B148
:1056F0004FF0C0510648FBF773FB21460448FEF704
:1057000067FA05B0F0BD000057D60108A057012088
:10571000586002402DE9F04399B006460F46904686
:105720000024A1464046FAF7D7FD00F0FF09EE221B
:105730002146641C0DF80120B1222146641C0DF89D
:10574000012010222146641C0DF80120321221464E
:10575000641C0DF80120F2B22146641C0DF80120F2
:105760003A122146641C0DF80120FAB22146641C4D
:105770000DF80120002508E018F805202046611CDE
:10578000CCB20DF80020681CC5B24D45F4DBFF22F9
:105790002046611CCCB20DF80020FC222046611C82
:1057A000CCB20DF80020FF222046611CCCB20DF8CF
:1057B00000202046611CCCB20DF80020002505E039
:1057C0001DF805000B494855681CC5B2A542F7DB1A
:1057D0004FF0C0510848FBF7E3FB20B14FF0C05138
:1057E0000548FBF7FDFA21460348FEF7F1F919B029
:1057F000BDE8F083A05701205860024000242BE050
:1058000016480078012802D1022014490870FBF7DD
:1058100083F90A2094FBF0F100FB1140B8B9FBF7C3
:105820003FFC0F4908800F48006808B9012000E0DC
:1058300000200C4908600C48007F012804D10B4867
:1058400001680BA004F072FB002008490860601C8E
:10585000C4B2642016F060FCD2E7000036000020DD
:105860002C000020A482424200030020600000209F
:105870004144D7AABBBBBCC6CAFDA3BA25640D0A66
:1058800000000000654A12780270644A527E42703D
:10589000624A127D8270614A527DC2705F4A927D77
:1058A00002715E4A927E42715C4A127E82715B4A4C
:1058B000127FC271594AD27E0272584A527F427296
:1058C000564A127C8272554A527CC272534A927C6A
:1058D0000273524AD27C4273504A127A82734F4A00
:1058E000527AC2734D4A927A02744C4AD27A427406
:1058F0004A4A127B8274494A527BC274474A927B5D
:105900000275464AD27B4275444A927F8275434A69
:10591000128C1212C275414A92F8202002763F4A38
:10592000528C121242763D4A92F822208276002151
:1059300010E03A4A243232F8112013124A001B3286
:105940008354364A243212F811304A001C328354F0
:105950004A1CD1B20829ECDB002110E02F4A443266
:1059600032F8112013124A002B3283542B4A44324E
:1059700012F811304A002C3283544A1CD1B2082943
:10598000ECDB002110E0254A543232F811201312CA
:105990004A003B328354214A543212F811304A00F3
:1059A0003C3283544A1CD1B20829ECDB002110E0C0
:1059B0001A4A343232F8112013124A004B328354FF
:1059C000164A343212F811304A004C3283544A1CC1
:1059D000D1B20829ECDB002110E0104A643232F821
:1059E000112013124A005B3283540C4A643212F8BD
:1059F00011304A005C3283544A1CD1B20529ECDBD9
:105A0000002107E0054A521C535C01F165028354F2
:105A10004A1CD1B20729F5DB7047000000030020C3
:105A20000278534B1A7042785A7682781A75C27887
:105A30005A7502799A7542799A7682791A76C2797C
:105A40001A77027ADA76427A5A77827A1A74C37AA5
:105A5000474A5374037B9374437BD374827B444BD8
:105A60001A72C37B424A5372037C9372437CD37293
:105A7000827C3F4B1A73C37C3D4A5373037D9373FF
:105A8000437DD373827D3A4B9A77027EC37D42EA8F
:105A90000322374B1A84827E437E42EA0322344B30
:105AA0005A8400210DE04A001C32835C4A001B32FC
:105AB000825C43EA02232E4A243222F811304A1C27
:105AC000D1B20829EFDB00210DE04A002C32835CC3
:105AD0004A002B32825C43EA0223254A443222F8F0
