:020000040800F2
:1000000048D2012055020008B74E0008DD40000824
:100010002D480008390C0008CDA40008000000009D
:100020000000000000000000000000009D0100082A
:10003000A52A000800000000F10100083D64000846
:100040006F0200086F0200086F020008595800088C
:100050006F0200086F0200086F0200086F020008BC
:100060006F0200086F0200086F0200086F020008AC
:100070006F0200086F0200086F0200086F0200089C
:100080006F0200086F0200086F0200086F0200088C
:100090006F0200086F0200086F0200086F0200087C
:1000A0006F0200086F0200086F0200086F0200086C
:1000B0006F020008B56400086F0200086F020008B4
:1000C0006F0200086F0200086F0200086F0200084C
:1000D0006F020008296700086F020008B167000876
:1000E0009D3A0008B55400086F0200086F0200082E
:1000F0006F0200086F0200086F0200086F0200081C
:100100006F0200086F0200086F0200086F0200080B
:10011000AD6600086F0200086F0200086F02000859
:100120006F0200086F0200086F0200086F020008EB
:100130006F020008593300086F0200086F020008C0
:100140006F0200086F0200086F020008454F0008A8
:100150006F0200086F0200086F0200080D680008B7
:100160006F0200086F0200086F0200086F020008AB
:100170006F0200086F0200086F0200086F0200089B
:100180006F0200086F020008DFF80CD000F0F8F9E9
:1001900000480047591C010848D201202A4B196821
:1001A0000868B0E8F04F80F30988BFF36F8F4FF015
:1001B000000080F3118870470000000006480068C6
:1001C000006880F3088862B661B6BFF34F8FBFF353
:1001D0006F8F00DF00BF00BF08ED00E0DFF80C000C
:1001E000016841F470010160704700BF88ED00E0D4
:1001F000EFF30980BFF36F8F134B1A681EF0100FD7
:1002000008BF20ED108A20E9F04F106008B44FF0CD
:10021000200080F31188BFF34F8FBFF36F8F1CF066
:1002200047FE4FF0000080F3118808BC1968086889
:10023000B0E8F04F1EF0100F08BFB0EC108A80F34A
:100240000988BFF36F8F7047D4000020EFF305805B
:10025000704700000648804706480047FEE7FEE773
:10026000FEE7FEE7FEE7FEE7FEE7FEE7FEE7FEE766
:100270004D6400088901000840EA01039B0703D090
:1002800009E008C9121F08C0042AFAD203E011F8D5
:10029000013B00F8013B521EF9D27047D2B201E097
:1002A00000F8012B491EFBD270470022F6E710B57B
:1002B00013460A4604461946FFF7F0FF204610BDD4
:1002C000421E12F8013F002BFBD111F8013B02F84E
:1002D000013B002BF9D17047421C10F8011B00298B
:1002E000FBD1801A704730B504460020034600E079
:1002F0005B1C934203D2E05CCD5C401BF8D030BD68
:100300002DE9FE4F81EA030404F0004421F000418E
:1003100000944FF0000B23F0004350EA01045ED03C
:1003200052EA03045BD0C3F30A54C1F30A552C44C8
:10033000A4F2F3340194A0FB0254C1F3130141F47D
:100340008011C3F3130343F4801301FB024400FB49
:10035000034E840A970A44EA815447EA8357A4FB70
:10036000076802958D0A05FB07854FEA932C04FB6D
:100370000C542705029D4FEA065847EA1637B5EB9D
:1003800008056EEB070C870E920E47EA811742EACA
:100390008312A7FB0201B6EB0B0164EB00042B0DEB
:1003A00043EA0C335E1844EB1C50DA465146E7FB37
:1003B0000201C5F313044FEA0B3343EA14534FEA27
:1003C0000432019C43EA0603A4F10C040294009C4D
:1003D000CDE900B400F086F803B0BDE8F08F00204E
:1003E0000146F9E70EB5C10F80EAE0700844CA077C
:1003F000002140F233438DE80E000A460B4600F020
:1004000071F803B000BD70B5C1F30A5201F00045A8
:100410000024C1F3130140F2FF3341F480119A42EA
:1004200001DA002070BD40F233439A42A2F2334217
:1004300003DC524200F037F800E090402C43F1D04A
:10044000404270BD2DE9F05F0546002092469B4674
:1004500088460646814640241BE0284641464746DA
:10046000224600F020F853465A46C01A914110D354
:1004700011461846224600F095F82D1A67EB010840
:100480004F4622460120002100F08CF817EB0009AE
:100490004E41201EA4F10104DFDC484631462A46C5
:1004A0004346BDE8F09F202A04DB203A21FA02F0FF
:1004B0000021704721FA02F3D040C2F1200291409E
:1004C00008431946704710B5141E73F1000408DA8A
:1004D000401C41F1000192185B411A4301D120F008
:1004E000010010BD2DE9F04D92469B4611B1B1FAC5
:1004F00081F202E0B0FA80F22032904600F052F829
:1005000004460F4640EA0A0041EA0B0153465A46A8
:10051000084313D0114653EA010019D0C8F1400234
:100520005046FFF7C0FF05460E4650465946424624
:1005300000F038F8084305D0012004E02046394691
:10054000BDE8F08D0020054346EAE0762C433743B2
:100550000A986305E40AA0EB08000022FD0A44EAB9
:1005600047540A3002D500200146E9E70105101979
:100570006941DDE9084500196941BDE8F04DA2E790
:10058000064C074D06E0E06840F0010394E80700E0
:1005900098471034AC42F6D3FFF7FAFD34900408C4
:1005A00054900408202A04DB203A00FA02F10020CB
:1005B00070479140C2F1200320FA03F319439040A1
:1005C000704770B58C1810F8015B15F0070301D166
:1005D00010F8013B2A1106D110F8012B03E010F8A6
:1005E000016B01F8016B5B1EF9D12B0705D40023C9
:1005F000521E0DD401F8013BFAE710F8013BCB1A6B
:10060000921C03E013F8015B01F8015B521EF9D55F
:10061000A142D8D3002070BD70B590B004460D46FD
:1006200016460121880504F007FE164800F020FC5C
:1006300000BF144800F0C8FC0028FAD101900294D1
:100640000395802004900596002006904FF480606A
:10065000079040000890099000200A904FF4403025
:100660000B9004200C9003200D9000200E900F9012
:1006700001A9044800F0D8FC0121024800F0ECFB7D
:1006800010B070BD106402401CB50121084604F092
:1006900003FE0121582004F0CFFD0C220021524816
:1006A00003F0DBFB0C2201214F4803F0D6FB0C22A8
:1006B00004214D4803F0D1FB0C2205214A4803F0E8
:1006C000CCFB0C220821484803F0C7FB0C2209216F
:1006D000454803F0C2FB0C220A21434803F0BDFB4E
:1006E0000C220E21404803F0B8FB0C220F213E489B
:1006F00003F0B3FB4CF23370009002208DF804003D
:1007000003208DF8050000208DF806008DF8070005
:100710006946354803F059FB0C220421334803F0A5
:100720009CFB0C220521314803F097FB0C2207218A
:100730002E4803F092FB0C2208212C4803F08DFB7D
:100740000C220921294803F088FB0C220A212748A2
:1007500003F083FB0C220B21244803F07EFB0C22C8
:100760001146224803F079FB0C220D211F4803F0AB
:1007700074FB0C220E211D4803F06FFB0C220F218D
:100780001A4803F06AFB4FF6B070009069461748AC
:1007900003F01BFB0C221146154803F05EFB4FF4DF
:1007A000805000906946124803F00FFB0121402061
:1007B00004F042FD01208DF8040003208DF80500AF
:1007C00000208DF806008DF807003C200090694657
:1007D000074803F0FAFA4FF4405000906946024887
:1007E00003F0F3FA1CBD0000000C024000100240B0
:1007F00000180240F0B589B005460121042004F03C
:100800005BFD0121082004F017FD4FF48050079094
:1008100002208DF8200003208DF8210000208DF8A3
:10082000220001208DF8230007A93F4803F0CDFAEC
:1008300002220C213C4803F010FB3C4800684708AA
:1008400040F6B830854208D263266420B7FBF0F04A
:10085000B0FBF5F0401E84B204E00026B7FBF5F0D3
:10086000401E84B20794ADF818600020ADF8200057
:10087000ADF81A0006A92E4805F0A6FE204604EBA6
:10088000D071491003916020ADF804000120ADF84B
:1008900006000220ADF8100001A9254805F04CFE25
:1008A0000821234805F086FE0121214805F018FEA5
:1008B00001211F4805F023FE0121082004F0BCFCA3
:1008C0000121880304F018FD00208DF818008DF830
:1008D0001B004FF40050059005A9134803F075FA6A
:1008E0000D21032005F0CCF84FF4005007900020B4
:1008F0008DF820000C208DF8210001208DF82200B9
:1009000007A803F001F928208DF8100003208DF8C6
:10091000110000208DF8120001208DF8130004A8AA
:1009200004F0CAFA09B0F0BD000C02405C000020DF
:100930000008004000B597B003200190002002900D
:100940000620039001200490002005900690079057
:1009500006200890002009900A9010200B9000209B
:100960000C900D900E900F9010904FF480501190BD
:10097000002012901390149001A81590169008A8CA
:1009800003F0B0F90121062003F092F917B000BD81
:1009900010B500F001F810BD10B50749074800F088
:1009A00021FB38B10449054800F03CFA082103480E
:1009B00003F09AFC10BD00002000001010640240FB
:1009C000202005490880891E08800880088008804A
:1009D000891C0880704700001A18024029490870D5
:1009E000072840D2DFE800F040040D17202A350028
:1009F0001021254A1180082111800421921E1180A6
:100A00003DE01021204A11800821921E118004210E
:100A1000921C118033E010211B4A11800821921E84
:100A20001180042111802AE01021174A921E1180A2
:100A30000821921C11800421118020E01021124A0B
:100A4000921E11800821921C11800421921E118097
:100A500015E010210C4A921E1180082111800421FA
:100A6000921C11800BE000BF0021064A117010217A
:100A7000054A1180082111800421118000BF00BFA8
:100A8000704700008C3800201A1802404FF4805044
:100A90000349088008800880891E0880704700008C
:100AA0001A0C024010B5044600F010F8FFF788FF5A
:100AB000FFF7ECFF00200449088048808880887197
:100AC0002046FFF797FE10BD9E3800201CB5002180
:100AD0000F4805F014FD0121082004F0ADFB0120B2
:100AE0008DF8040003208DF8050000208DF8060025
:100AF0008DF807004FF4805000906946054803F0D8
:100B000064F94FF480500349183108801CBD00007F
:100B100000080040000C024030B589B000250024D8
:100B2000AA2229466D1C01A84254BB2229466D1CED
:100B3000425400BF13E02C4830F81400C0F30722E1
:100B40002846691CCDB201A90A54274810F8142080
:100B50002846691CCDB201A90A54601CC4B2042CF9
:100B6000E9DB002413E0214830F81400C0F3072229
:100B70002846691CCDB201A90A541C4810F814205B
:100B80002846691CCDB201A90A54601CC4B2042CC9
:100B9000E9DBCC222846691CCDB201A90A54DD222A
:100BA0002846691CCDB201A90A54002405E001A819
:100BB000005D0F490855601CC4B2AC42F7DB0BE086
:100BC0004FF020510B4800F00DFA28B14FF02051A2
:100BD000084800F027F900E0F2E700BF2946054881
:100BE00003F082FB09B030BD4012002086030020D4
:100BF00028490120B86402401CB50121084604F0D0
:100C00001BFB4FF48070009001208DF80400002041
:100C10008DF8060003208DF8050002208DF80700EE
:100C20006946044803F0D1F84FF48071014803F09D
:100C300037F91CBD0000024000BFFEE770B586B06A
:100C400006460024EE222146641C01A84254B1222B
:100C50002146641C425400222146641C4254321234
:100C60002146641C42542146641C4654FF222146FE
:100C7000641C4254FC222146641C4254FF2220463C
:100C8000611CCCB201A90A542046611CCCB201A956
:100C90000A54002505E001A8405D0D494855681C2F
:100CA000C5B2A542F7DB0BE04FF0C051094800F098
:100CB00099F928B14FF0C051064800F0B3F800E0B0
:100CC000F2E700BF2146034803F00EFB06B070BDFB
:100CD000604801205860024000B587B04948007F55
:100CE000012805D148A20321042005F0D5F804E02D
:100CF00047A20321042005F0CFF802200AF04AF9A8
:100D00004048407F012805D13FA20521042005F07D
:100D1000C3F804E03EA20521042005F0BDF802203E
:100D20000AF038F9374890F82200012805D136A298
:100D30000921042005F0B0F804E035A209210420BF
:100D400005F0AAF802200AF025F92E48807F012834
:100D500005D12DA20C21042005F09EF804E02CA260
:100D60000C21042005F098F802200AF013F9254818
:100D7000828C00231121042002F040F802200AF0A6
:100D800009F92048C07A1F49897ACDE900101D4829
:100D9000437A027A20A102A809F028FD02AA0E21B6
:100DA000042005F079F802200AF0F4F81548C07B19
:100DB0001449897BCDE900101248437B027B16A1C0
:100DC00002A809F013FD02AA0F21042005F064F81F
:100DD00002200AF0DFF80B48C07C0A49897CCDE983
:100DE00000100848437C027C0BA102A809F0FEFC1D
:100DF00002AA1021042005F04FF802200AF0CAF8D8
:100E000007B000BD14030020B4F2BFAA0000000028
:100E1000B9D8B1D50000000025642E25642E2564C4
:100E20002E2564000246094B9A4201D2084801E08F
:100E30000648103801F000531BB1064B0B40C3604D
:100E400002E0044B0B4083607047000010640240D6
:100E5000006002407D0F7D0F21B1026842F0010267
:100E6000026003E0026822F00102026070470000A5
:100E7000016821F001010160002101604160816091
:100E8000C1600161212141614A49884204D13D216B
:100E9000484A103A91608CE046491831884205D1A1
:100EA0004FF47461434A103A916082E04149303115
:100EB000884205D14FF474113E4A103A916078E0AF
:100EC0003C494831884205D14FF07461394A103AA3
:100ED00091606EE037496031884204D13649354A25
:100EE000103AD16065E033497831884204D1334902
:100EF000304A103AD1605CE02E499031884204D1EA
:100F00002F492C4A103AD16053E02A49A83188422F
:100F100005D14FF03D51274A103AD16049E02949A7
:100F2000884204D13D21274A083A116041E0254911
:100F30001831884205D14FF47461224A083A116091
:100F400037E020493031884205D14FF474111D4AF1
:100F5000083A11602DE01B494831884205D14FF015
:100F60007461184A083A116023E0164960318842DA
:100F700004D11149134A121F11601AE01149783146
:100F8000884204D10D490F4A121F116011E00D492A
:100F90009031884204D10A490A4A121F116008E0C0
:100FA0000849A831884204D14FF03D51054A121F2B
:100FB00011607047106002403D000020400F00208B
:100FC00000003D2010640240014600200A6802F043
:100FD00001020AB1012000E0002070470146486884
:100FE00080B2704730B503460A46002000240B4DFE
:100FF000AB4201D20A4901E00849103902F000551C
:101000000DB14C6800E00C68064D2C4004EA020566
:101010000DB1012000E0002030BD0000106402404E
:10102000006002407D0F7D0F10B500220268134B57
:101030001A40CC680B6823434C6923438C692343D3
:10104000CC6923430C6A23434C6A23438C6A2343B1
:101050004C6B23438C6B23431A430260426922F09A
:101060000702D1E90B3423431A4342610B69436001
:101070004B6883608B68C36010BD00003F801CF02C
:101080004160704710B500241448006820F44020E7
:101090001249086008460068086004E0601CC4B299
:1010A000012009F097FF0E48006808B1C82CF5DB55
:1010B000C82C01DB012010BD002404E0601CC4B278
:1010C000012009F087FF0648006808B9F02CF5DB1D
:1010D000F02C01DB0120EEE70020ECE700180240D5
:1010E000240243422DE9F0412DED048B00F0C4F8B9
:1010F00000F0A0F8FFF7C6FFCC2000F0C9F8BE2032
:1011000000F0C6F800F084F8074600F081F80446C5
:10111000072C05DDE043C4B2F843C7B2002600E067
:1011200001262546280205B2E81905B22846FFF730
:1011300059F941EC190B9FED0A0B53EC102BFFF7FB
:10114000DFF841EC180BFFF75EF905B226B128462F
:10115000BDEC048BBDE8F081684200B2F8E7000006
:10116000000000000000E43F1CB50121402004F015
:1011700063F84FF40070009001208DF80400002007
:101180008DF8060002208DF8050001208DF807007B
:101190006946044802F019FE00F04CF8FFF772FFB0
:1011A0001CBD00000018024010B51648006820F46D
:1011B0004020144908600846006840F48020086018
:1011C000002011490860022009F004FF01200F49A6
:1011D000C1F8A4020B48006820F4402009490860C7
:1011E0000846006808600C2009F0F4FE06488038C4
:1011F000006808B1012400E00024322009F0EAFE72
:10120000204610BD00180240A402434200004342A1
:1012100070B50026012508E0FFF7C6FF0446E0018F
:1012200040EA6600C6B2681CC5B2082DF4DD30463F
:1012300070BD000010B50D48006820F440200B4937
:1012400008600846006840F48020086000200849D3
:10125000086040F2EE2009F0BDFE01200549C1F80A
:10126000A4020F2009F0B6FE10BD000000180240D5
:10127000A40243420000434210B5FFF7DBFFFFF733
:1012800001FFCC2000F004F8442000F001F810BD6C
:1012900070B504461848006820F4402016490860DC
:1012A0000846006840F480200860012520E004F032
:1012B000010664106EB1002010490860022009F098
:1012C00089FE01200E49C1F8A4023C2009F082FEEB
:1012D0000CE00020094908603C2009F07BFE012059
:1012E0000749C1F8A402022009F074FE681CC5B2C7
:1012F000082DDCDD70BD000000180240A40243424E
:1013000000004342A8B00027B946B846BA460025B7
:1013100000F016BFF9480078002840F30E87082433
:1013200008E0F748025D2846691CCDB201A90A54BD
:10133000601CC4B2F1480078401FA042F1DCF048C4
:101340004078B1281FD1EE48007902281BD1EC4823
:10135000807903280AD1EB48C08C41F28831884259
:1013600004DAE848C08C401CE649C884E448807927
:10137000042808D1E348C08C0A2804DDE148C08C69
:10138000401EE049C884DE484078B12843D1DC489B
:10139000007903283FD1DA48807908280BD1D84852
:1013A000007A40B90120FFF749FC0120D6490880A6
:1013B000052009F0EFFDD248807908282BD1D048CC
:1013C000007A012827D1D148006808B9012000E03F
:1013D0000020CE490860CE4804F05EFECD4800688B
:1013E000A0F1C801C822CA4809F036F9C82009F09E
:1013F000D1FDC948D0F8A00208B9012000E00020C2
:10140000C24908600120FFF719FC0120BE4908808D
:10141000052009F0BFFDBA484078B12870D1B8481E
:1014200000790428FAD1B6488079801F0C2868D248
:10143000DFE800F00611F1F11CF1F1295389BD3408
:10144000AF48007A18B90120AE49487702E0002081
:10145000AC494877E0E0AA48007A18B90120A949C8
:10146000087702E00020A7490877D5E0A448007A71
:1014700020B90120A34981F8220003E00020A149FE
:1014800081F82200C8E09E48007A18B901209D49E1
:10149000887702E000209B498877BDE000209949C9
:1014A000888400240DE09D4830F8140030389549B8
:1014B000898C01EB810100EB410092498884601C1A
:1014C000C4B2AC42EFDB8F48007F012804D18D48C5
:1014D000818C93A009F07AF99EE0002600218948CA
:1014E0000830815500241DE001A8005D2E2809D197
:1014F0000021701CC2B216468248083081540FE0A9
:101500008BE088E001A8005D30387E490831895DB4
:1015100001EB810100EB4100C1B27A4808308155EE
:10152000601CC4B2AC42DFDB7648007F012809D1E1
:101530007448C07A00907348837A427A017A7CA01A
:1015400009F044F968E0002600216E480C3081550E
:1015500000241BE001A8005D2E2807D10021701C8B
:10156000C2B2164667480C3081540DE001A8015DF7
:10157000303964480C30805D00EB800001EB4000A6
:10158000C1B260480C308155601CC4B2AC42E1DB92
:101590005C48007F012809D15A48C07B0090594817
:1015A000837B427B017B62A009F010F934E00026C6
:1015B000002154481030815500241BE001A8005D33
:1015C0002E2807D10021701CC2B216464D4810309B
:1015D00081540DE001A8005D30384A491031895D21
:1015E00001EB810100EB4100C1B24648103081554A
:1015F000601CC4B2AC42E1DB4248007F012809D143
:101600004048C07C00903F48837C427C017C48A0DD
:1016100009F0DCF800E000BF00BF39484078B1288D
:101620006BD1374800790528FAD1354880790228EE
:1016300013D100204549088000240CE001A8005D7A
:1016400030384249098801EB810100EB41003F49F4
:101650000880601CC4B2AC42F0DB294880790F28B6
:101660007CD12A48006808B9012000E00020274901
:10167000086037480078002803DD354800780728DF
:1016800002DB012032490870002131480078401EF9
:10169000304A42F82010002417E02D480078401E00
:1016A0002C4951F820102A480078401E2A4A52F846
:1016B0002000014426480078401E264A42F82010A7
:1016C0000A2009F067FC601CC4B20A2CE5DB204844
:1016D0000078401E1F4951F820000A2190FBF1F0CC
:1016E00002B21B480078401E0649283121F810201C
:1016F0000648006898BB012033E060E1A9000020A3
:10170000686801201403002058000020A002404215
:10171000B8030020540000200000404200120020C6
:101720004E6574506F72743A25640D0A0000000013
:101730004950416464726573733A2025642E2564B0
:101740002E25642E25640D0A0000000040000020B4
:101750003400002050100020E811002003E0FFE7D3
:101760000020FE490860FE488079102866D1FB48B9
:10177000006808B9012000E00020F8490860F94835
:101780000078002803DDF7480078072802DB0120F5
:10179000F44908700021F3480078401EF24A42F8EC
:1017A0002010002417E0EF480078401EEE4951F861
:1017B0002010EC480078401EEC4A52F8200001440A
:1017C000E8480078401EE84A42F820100A2009F054
:1017D000E1FB601CC4B20A2CE5DBE2480078401E45
:1017E000E14951F820000A2190FBF1F1DD48007831
:1017F000401EDD4A42F82010DA480078401E1146AB
:1018000051F82020D7480078401ED94931F91000FE
:10181000101AD8490988C90391FBF0F082B2D14867
:101820000078401ED249103121F81020CB480068C2
:1018300008B9012000E00020C8490860C848807944
:10184000022827DDC6488079052823DA0022C4480B
:101850008079C01EC649103121F81020002417E0FD
:1018600001A8005D3038BE498979C91EC04A1032CE
:1018700032F8111001EB810100EB410082B2B8484F
:101880008079C01EBA49103121F81020601CC4B202
:10189000AC42E5DBB2488079122808DDB048807997
:1018A000152804DAAE4880791238AE490870AC4881
:1018B0008079062856DBAA488079082852DC002265
:1018C000A7488079801FAA494A3121F810209DF845
:1018D00004002D282AD1012417E001A8015D303928
:1018E0009F488079801FA24A4A3232F8100000EBEC
:1018F000800001EB400002B299488079801F9C492A
:101900004A3121F81020601CC4B2AC42E5DB944897
:101910008079801F96494A3131F81000404202B266
:101920008F488079801F21F810201BE0002417E0E9
:1019300001A8015D30398A488079801F8C4A4A327B
:1019400032F8100000EB800001EB400002B2844846
:101950008079801F86494A3121F81020601CC4B26A
:10196000AC42E5DB7E4880790B283FD100218048DE
:101970002838A0F878109DF804002D2820D10124E3
:1019800011E001A8005D303879492839B1F87810A4
:1019900001EB810100EB410001B275482838A0F845
:1019A0007810601CC4B2AC42EBDB71482838B0F848
:1019B0007800404201B26E482838A0F8781015E04F
:1019C000002411E001A8005D303869492839B1F8D8
:1019D000781001EB810100EB410001B26448283826
:1019E000A0F87810601CC4B2AC42EBDB5C484078D5
:1019F000B12874D15A4800790628FAD1584880791C
:101A0000192804D15648007A59492839087554488C
:101A1000807903281AD1002155482838A0F8601091
:101A2000002411E001A8005D303851492839B1F88F
:101A3000601001EB810100EB410081B24C48283875
:101A4000A0F86010601CC4B2AC42EBDB4448807963
:101A500004281AD1002146482838A0F85E10002436
:101A600011E001A8005D303841492839B1F85E1015
:101A700001EB810100EB410081B23D482838A0F81C
:101A80005E10601CC4B2AC42EBDB3548807906289E
:101A90001AD1002136482838A0F86410002411E03B
:101AA00001A8005D303832492839B1F8641001EBE3
:101AB000810100EB410081B22D482838A0F8641064
:101AC000601CC4B2AC42EBDB2548807907281BD1EF
:101AD000002127482838A0F86210002412E0EFE027
:101AE00001A8005D303822492839B1F8621001EBB5
:101AF000810100EB410081B21D482838A0F8621036
:101B0000601CC4B2AC42EBDB1548807908281AD1BE
:101B1000002117482838A0F86610002411E001A819
:101B2000005D303812492839B1F8661001EB8101A7
:101B300000EB410081B20E482838A0F86610601C06
:101B4000C4B2AC42EBDB06488079102804D10448CB
:101B5000007A07492839487501480DE0A002404243
:101B6000686801203400002038100020E8110020AF
:101B70003C030020400000208079162809D1FD4850
:101B8000007A18B90120FC49887502E00020FA4962
:101B90008875F8488079142803D1F648007AF64908
:101BA0000876F448807915280BD1F248007A20B9DC
:101BB0000120F14981F8200003E00020EE4981F87E
:101BC0002000EC4880790D2816D10020EA49A1F8C0
:101BD000480000240EE001A8005D3038E649B1F865
:101BE000481001EB810100EB4100E349A1F84800F6
:101BF000601CC4B2AC42EEDBDE4880790E2817D1FF
:101C00000021DD48A0F84A1000240FE001A8005D83
:101C10003038D949B1F84A1001EB810100EB41009D
:101C200081B2D548A0F84A10601CC4B2AC42EDDBCA
:101C3000D0488079172813D10020CF49C8840024C8
:101C40000CE001A8005D3038CB49C98C01EB810163
:101C500000EB4100C849C884601CC4B2AC42F0DB50
:101C6000C448807918282BD10020C349C8770024A4
:101C70000CE001A8005D3038BF49C97F01EB81014C
:101C800000EB4100BC49C877601CC4B2AC42F0DB39
:101C9000B948C07F01280CD0B748C07F022808D0BF
:101CA000B548C07F052190FBF1F000EB8000B24900
:101CB000C877B148C07F012802DA0120AE49C87751
:101CC000AC484078B12858D1AA480079072854D1A7
:101CD000A848807903284FD19DF8070030389DF837
:101CE0000610303901EB810100EB4100A349C870B7
:101CF0009DF8090030389DF80810303901EB81015A
:101D000000EB41009D4948709DF80B0030389DF86C
:101D10000A10303901EB810100EB410097498870CE
:101D20009DF80D0030389DF80C10303901EB810121
:101D300000EB4100924908709DF80F0030389DF883
:101D40000E10303901EB810100EB41008C494870E5
:101D50009DF8110030389DF81010303901EB8101E9
:101D600000EB4100864988708449002003F084FC20
:101D70008349002003F0E4FC00BF7E484078B1288E
:101D80007ED17C4800790828FAD17A4880790228E7
:101D90002BD1002411E001A8015D7748401C005DB3
:101DA0003030814205D001A8005D7649095D884246
:101DB00001D1781CC7B2601CC4B2AC42EBDB072D6A
:101DC00001DB072F07DA70A20721082004F064F86E
:101DD0004FF0000808E0072F06D16EA20721082067
:101DE00004F05AF84FF00108002762488079032870
:101DF00015D1002405E001A8005D26A90855601C46
:101E0000C4B2AC42F7DB072D07D065A2072108203A
:101E100004F042F84FF0000A01E04FF0010A554883
:101E20008079042815D1002405E001A8005D24A9CB
:101E30000855601CC4B2AC42F7DB072D07D058A28E
:101E40000721082004F028F84FF0000A01E04FF0C5
:101E5000010A4848807905280BD15548836855A167
:101E600042680BA808F0C2FC0BAA0721082004F066
:101E700013F840488079062838D1B8F1010F00E006
:101E800037E02BD1BAF1010F28D1002409E026A8B0
:101E9000005D24A9095D884201D1781CC7B2601C8D
:101EA000C4B2072CF3DB072F12D1002408E026A8C8
:101EB000005D3038C1B23048401C0155601CC4B2CE
:101EC000072CF4DB3FA20721082003F0E5FF0DE01B
:101ED00040A20721082003F0DFFF07E0B8F1000F60
:101EE00004D141A20721082003F0D6FF052009F004
:101EF00051F820484078B1282ED11E480079092891
:101F00002AD11C488079032807D101203A4908705A
:101F10003AA20721092003F0BFFF1648807906285E
:101F200009D11448007A18B901201349487602E013
:101F30000020114948760F488079092809D10D48B9
:101F4000007A18B901200C49087002E002200A4901
:101F50000870052009F01EF806484078B1287DD1A8
:101F6000044800790B2879D102488079042876D179
:101F700000246DE068680120140300202800002080
:101F800024000020F4DE0108C3DCC2EBB4EDCEF384
:101F9000A3A10000C3DCC2EBD5FDC8B7A3A100001C
:101FA000C3DCC2EBB3A4B6C8B4EDCEF3A3A100006A
:101FB00000130020BCD3C3DCC4DAC2EBA3BA25787B
:101FC0002D257800C3DCC2EBD0DEB8C4CDEAB3C99E
:101FD000A3A10000CAE4C8EBC3DCC2EBB2BBD2BB16
:101FE000D6C2A3A100000000D4ADC3DCC2EBB4EDA7
:101FF000CEF3A3A10000000036000020BFAACABC97
:10200000B5BCB3F6CAFDBEDD2E2E2E0004F10800CD
:102010004C49095C4C48005D3030814207D004F1E6
:1020200008004849085C4949095D884201D1781C8B
:10203000C7B24548401E007F012807D104F10800BF
:1020400040490A5C214642A008F0C0FB601CC4B2B3
:10205000072CDBDB072F15D13B4801E04BE024E0E8
:10206000401E007F012802D13CA008F0AFFB3FA238
:1020700005210B2003F010FF4FF00109052008F0A7
:1020800089FF11E03048401E007F012802D13AA0AC
:1020900008F09CFB3CA205210B2003F0FDFE4FF055
:1020A0000009052008F076FF0027264880790228DD
:1020B0000DD1B9F1010F08D1052008F06BFF032005
:1020C000FEF7BCFD052008F065FF4FF000091D4834
:1020D000807903280FD12F488368AFF22811426816
:1020E0000BA808F083FB0BAA05210B2003F0D4FEFC
:1020F000052008F04FFF13484078B12819D1114846
:102100008078012815D124480078092811D10D487C
:1021100000790C49C97840EA0120204908800A4822
:10212000401E007F012804D1084601881CA008F049
:102130004DFB002018490870002564201AF03EFC71
:10214000FFF7E8B86868012015030020F4DE0108F5
:10215000707325643A25640D0A000000C3DCC2EBED
:10216000D5FDC8B7A3A10D0A00000000C3DCC2EB77
:10217000D5FDC8B72E2E2E00C3DCC2EBB4EDCEF3D6
:10218000A3A10D0A00000000C3DCC2EBB4EDCEF346
:102190002E2E2E0000130020A90000205800002041
:1021A000B5B1C7B0D2B3C3E6A3BA25640D0A000027
:1021B000A8B00027B946BA4600202790804626904E
:1021C00000BF059004900390029001908346002583
:1021D00000BFF3E34FF47A7101201AF099F9402F10
:1021E00001DA781CC7B200242BE0FE4830F8140056
:1021F000FD4901EB8411FD4A127821F812000020FC
:10220000FB4941F8240000260DE0F74800EB84105C
:1022100030F91600F64951F824100844F44941F801
:102220002400701C86B2202EEFDBF14951F8240007
:10223000C11700EBD1614911ED4A42F82410601C2E
:1022400084B2022CD1DBE9480078401CE7490870D1
:10225000084600781F2801DD002001E0E3480078EF
:10226000E249087000247FE0E14830F82410E1489A
:1022700030F81400081A00B2DF4921F81400D948D8
:1022800030F81410DB4830F81400081A00B2DB49AB
:1022900021F81400D34830F91400002822DDD64973
:1022A00031F91410D34A103232F8142001FB02F035
:1022B000C11700EB5141C91309B2CF4A22F81410DB
:1022C000CE4931F91410CB4A103232F8142001FBF8
:1022D00002F0C11700EB5141C91309B2C74A22F8F5
:1022E00014103FE0C44830F81400404200B2C24924
:1022F00021F8140031F91420BE49103131F81410BE
:1023000002FB01F0C11700EB5141C91309B2BA4AEF
:1023100022F81410104630F81400404200B2114662
:1023200021F81400B54830F81400404200B2B34917
:1023300021F8140031F91410AE4A103232F814208A
:1023400001FB02F0C11700EB5141C91309B2AB4ABE
:1023500022F81410104630F81400404200B2114622
:1023600021F81400601C84B2022CFFF67DAFA14856
:102370002838B0F86400A24908800846008832284E
:1023800004DB08460088B0F5FA7F07DD64209C492D
:102390000880642197482838A0F8641095482838A8
:1023A000B0F862009749088008460088322804DBAC
:1023B00008460088B0F5FA7F07DD6420914908805F
:1023C00064218C482838A0F86210402F7EDBB8F1D9
:1023D000200F12DA002409E0884830F8140006A91A
:1023E00001EB841121F81800601C84B2022CF3DB8D
:1023F00008F1010000F0FF0819E000240DE006A933
:10240000601C31F8100021F8140016A8611C30F887
:10241000111020F81410601C84B2202CEFDB7748D8
:102420000088ADF8560075484188ADF8961073489D
:10243000B0F900007049B1F90010714A12881144D6
:1024400088420ADC6D48B0F900006B49B1F9001010
:102450006B4A1288891A884223DA9DF89800401C3A
:10246000C0B28DF898009DF898000A2811DB002072
:102470008DF899009DF898000A2807D15E480088D9
:10248000ADF814005C480088ADF8100001208DF80C
:102490009C009DF89800C82834DD32208DF8980003
:1024A00030E05648B0F900105348B0F90000554AE2
:1024B00012881044814225DA5048B0F900104E4885
:1024C000B0F900004F4A1288801A00E093E281427E
:1024D00018DD9DF89900401CC0B28DF899009DF858
:1024E0009900642807DBBDF80400B0F57A7F02DBB1
:1024F00000208DF898009DF89900C82802DD64201E
:102500008DF899009DF898000A2843DB002D05DD21
:102510000020ADF804008DF89C000025BDF80400F3
:1025200020281CDA002417E006A830F81400BDF8B3
:102530000410354A22F8110016A830F81410BDF81E
:102540000420324820F81210BDF80400401C80B26C
:10255000ADF80400601C84B2202CE5DB93E2BDF8EA
:10256000040040F2BC718842F8DA24480088BDF8C3
:102570000410254A22F8110020484188BDF80420A3
:10258000224820F81210BDF80400401C80B2ADF8BB
:10259000040078E29DF899006428DFDB4FF0000921
:1025A000CA46002479E0BDF91400174931F9141026
:1025B000884206DA144830F81400ADF81400ADF87B
:1025C0000C40BDF91610114830F91400814206DAAA
:1025D0000E4830F81400ADF81600ADF80E400A4869
:1025E00016E00000001200206810002037000020D4
:1025F000E81100203C03002040120020801200203F
:10260000480000204A0000204C190020EC2800203F
:1026100030F91400F849B1F97210884204DAB9F1BE
:10262000000F01D14FF00109F44830F91410F248BD
:10263000B0F9760081420BDABAF1000F08D1EF4809
:1026400030F81400ADF81200ADF80A404FF0010A5E
:10265000BDF91000EA4931F91410884209DDB9F1D9
:10266000000F06D1E64830F81400ADF81000ADF8C0
:102670000840BDF91210E14830F91400C838814211
:1026800009DDBAF1000F06D1DC4830F81400ADF8CE
:102690001200ADF80A40601C84B2BDF80400A042EC
:1026A00081DC9DF89C0001287ED1BDF80400322811
:1026B0007ADDBDF80400401ED14931F91010D04830
:1026C000B0F90000C830814210DDBDF80A000A21CF
:1026D00090FBF1F000B2CB4908800846B0F9001039
:1026E000C9A008F073F84AF2A11B2EE0BDF804005F
:1026F000401EC34931F91000C830B1F900108842BA
:1027000013DABDF80800BDF80C10401A0A2190FB3E
:10271000F1F000B2BB4948800846B0F90210BEA0F3
:1027200008F054F84AF2A22B0FE0BDF808000A2185
:1027300090FBF1F000B2B34908800846B0F90010F0
:10274000B9A008F043F84AF2A33BBB48007803283D
:102750007EDA4FF0FF30B8490978C1F1020101EB90
:102760004102C2EBC111B54A02EB811108804AF661
:10277000AA20B1490978C1F1020101EB4102C2EB83
:10278000C111AE4A02EB811148800FFA8BF0AA49C1
:102790000978C1F1020101EB4102C2EBC111A74A64
:1027A00002EB8111888000E0C1E0032427E0E01EF5
:1027B000934931F81010A0480078C0F1020000EBF6
:1027C0004002C2EBC0109D4A02EB80126000C01EA6
:1027D00022F81010E01E894931F810109648007850
:1027E000C0F1020000EB4002C2EBC010934A02EBC2
:1027F00080126000801E22F81010601C84B2BDF8A8
:102800000400C01CA042D2DCBDF804004FF6FF71EA
:1028100001EA4000ADF804004FF6F8018648007860
:10282000C0F1020000EB4002C2EBC010834A02EB91
:102830008012BDF80400C01C22F810107E480078F9
:10284000C0F1020000EB4002C2EBC0107B4A00E086
:1028500060E002EB8012BDF80400001D22F81010A9
:1028600075480078C0F1020000EB4002C2EBC010D6
:10287000724A02EB8012BDF80400401D22F81010CD
:102880006D480078C0F1020000EB4002C2EBC010BE
:102890006A4A02EB8012BDF80400801D22F8101075
:1028A0004FF2F00164480078C0F1020000EB4002F2
:1028B000C2EBC010614A02EB8012BDF80400C01DDB
:1028C00022F81010BDF8040008305B490978C1F106
:1028D00002015B4A22F8310057480078C0F102003B
:1028E00000EB4001C1EBC010544901EB801052498C
:1028F0000978C1F1020102EBC10148604E4800783D
:10290000401C4D4908700020ADF804008DF89C0073
:10291000002512E0681C85B242F2107085420CDB83
:102920000020ADF804008DF89C00002505E0002093
:10293000ADF804008DF89C0000250020ADF80800DB
:10294000ADF80C00ADF81400ADF810002A48B0F94D
:1029500074002949B1F84810401A3A49B1F90010F9
:1029600088420FDA2448B0F974002349B1F84810BE
:1029700008443449B1F90010884203DD012032498E
:1029800008701FE01C48B0F972001B49B1F84810EC
:10299000401A2C49B1F90010884210DA1648B0F9F3
:1029A00072001549B1F8481008442649B1F90010E1
:1029B000884204DD02202449087003E068E0032017
:1029C000214908700C48B0F97810B0F84A00081A8C
:1029D0001C49B1F90210884238DA0748B0F978107A
:1029E000B0F84A0008441749B1F9021088422DDDB9
:1029F00001201549487046E014030020EC2800200F
:102A00004C190020C01200205370656564313A25CE
:102A100064200D0A000000005370656564323A2599
:102A200064200D0A000000005370656564333A2588
:102A300064200D0A000000003A0000200030001061
:102A4000A0030020401200203C0000201148B0F9F3
:102A50007610B0F84A00081A0F49B1F902108842FE
:102A60000EDA0C48B0F97610B0F84A0008440A496A
:102A7000B1F90210884203DD02200849487002E0E3
:102A800003200649487006480068401C0449086055
:102A9000FFF7A0BB14030020401200203C000020E0
:102AA000700000207047000000200221474A11708A
:102AB000002151761175517591759176012111762C
:102AC00000211177D17651770521D177002182F845
:102AD000201082F82110C0211174A8223B494A74A9
:102AE00001228A74CA74C021384A1172A822374957
:102AF0004A7201228A721F22CA72FF21334A11735D
:102B0000FF2232494A738A730122CA7300212F4A75
:102B1000917741F6987191846421D18400BF07E0D8
:102B20004FF47A722949683121F81020411CC8B24B
:102B30000528F5DB0121254AD175002007E044F680
:102B400020622249383121F81020411CC8B20828DF
:102B5000F5DB002005E008221C49491C0A54411CF1
:102B6000C8B20728F7DB0021184A82F8221000209B
:102B700007E04FF47A721549583121F81020411CB2
:102B8000C8B20828F5DB002007E04FF496720F4921
:102B9000483121F81020411CC8B20828F5DB00207C
:102BA00006E000220949283121F81020411CC8B252
:102BB0000828F6DB002006E078220449723121F86B
:102BC0001020411CC8B20C28F6DB7047140300200B
:102BD00010B55148028F00230321052000F00EF9A3
:102BE000022008F0D7F94C48428F00230421052029
:102BF00000F004F9022008F0CDF94848B0F90020AF
:102C000000230921052000F0F9F8022008F0C2F99C
:102C10004248B0F9022000230A21052000F0EEF816
:102C2000022008F0B7F900233D4802880221052060
:102C300000F0E4F8022008F0ADF93748B0F972204E
:102C400000230621052000F0D9F8022008F0A2F99F
:102C50003148B0F9742000230721052000F0CEF898
:102C6000022008F097F92C48B0F9762000230821BB
:102C7000052000F0C3F8022008F08CF92648B0F9CE
:102C8000782000230B21052000F0B8F8022008F07E
:102C900081F924480078012813D123A212210520AC
:102CA00003F0FAF8022008F075F92148B0F9002085
:102CB00000230521084600F0A1F8022008F06AF977
:102CC00028E018480078022813D11AA21221052002
:102CD00003F0E2F8022008F05DF91548B0F902208F
:102CE00000230521084600F089F8022008F052F977
:102CF00010E012A21221052003F0CEF8022008F005
:102D000049F900231A460521084600F077F8022009
:102D100008F040F910BD000014030020401200200C
:102D20004000002034000020B7D6D5A200000000EB
:102D300000120020BACFD5A200000000CEB4D1A16D
:102D4000D6D0000000244FF4FA7008F023F925A231
:102D50000121002003F0A0F84FF4FA7008F01AF9EE
:102D60000120FDF76BFF0120234908804FF4FA7022
:102D700008F010F935E0641C1F4800880B281FD2AA
:102D8000DFE800F01E06091E0C0F12151E181B00AE
:102D900001F0C0FA15E001F01DFC12E0FDF79CFF08
:102DA0000FE0FFF715FF0CE002F02AF909E003F04D
:102DB0004DFC06E002F084FE03E001F0D7F900E0EC
:102DC00000BF00BF052008F0E5F8142094FBF0F1E7
:102DD00000FB114008B901F067F84FF4FA7019F0E0
:102DE000EDFDC8E7CDEAB3C9A3ACBDF8C8EBCFB5DC
:102DF000CDB32E2E2E000000580000202DE9F04FFC
:102E000085B082468B4615461E4600240027A04604
:102E1000EE222146641C0DF80120B1222146641CDB
:102E20000DF8012010222146641C0DF801204FEA04
:102E30002A222146641C0DF801200AF0FF022146D7
:102E4000641C0DF801204FEA2B222146641C0DF86A
:102E500001200BF0FF022146641C0DF80120002D1B
:102E600006DA2D222046611CCCB20DF800206D42FE
:102E7000C448854206DD46222046611CCCB20DF8CE
:102E8000002043E1052E00DD0026BF4895FBF0F051
:102E9000002811DDBB48401C95FBF0F100FB1150F0
:102EA000B94990FBF1F03030C2B22046611CCCB27F
:102EB0000DF80020781CC7B2B44895FBF0F000284C
:102EC00010DDB14895FBF0F100FB1150AF4990FBCC
:102ED000F1F03030C2B22046611CCCB20DF80020B7
:102EE000781CC7B2052E17D1B8F1000F14D137B135
:102EF0002E222046611CCCB20DF800200BE03022BF
:102F00002046611CCCB20DF800202E222046611C08
:102F1000CCB20DF80020B04642F2107095FBF0F0F4
:102F2000002812DD994895FBF0F100FB115042F2A8
:102F3000107190FBF1F03030C2B22046611CCCB26F
:102F40000DF80020781CC7B208E0B8F1000F05D0DA
:102F500030222046611CCCB20DF80020042E17D17F
:102F6000B8F1000F14D137B12E222046611CCCB22B
:102F70000DF800200BE030222046611CCCB20DF889
:102F800000202E222046611CCCB20DF80020B04655
:102F90004FF47A7095FBF0F0002813DD42F21070C8
:102FA00095FBF0F100FB11504FF47A7190FBF1F0BA
:102FB0003030C2B22046611CCCB20DF80020781C23
:102FC000C7B208E0B8F1000F05D030222046611CDE
:102FD000CCB20DF80020032E17D1B8F1000F14D198
:102FE00037B12E222046611CCCB20DF800200BE038
:102FF00030222046611CCCB20DF800202E22204643
:10300000611CCCB20DF80020B046642095FBF0F0B6
:10301000002812DD4FF47A7095FBF0F100FB11509F
:10302000642190FBF1F03030C2B22046611CCCB27A
:103030000DF80020781CC7B208E0B8F1000F05D0E9
:1030400030222046611CCCB20DF80020022E17D190
:10305000B8F1000F14D137B12E222046611CCCB23A
:103060000DF800200BE030222046611CCCB20DF898
:1030700000202E222046611CCCB20DF80020B04664
:103080000A2095FBF0F0002811DD642095FBF0F19B
:1030900000FB11500A2190FBF1F03030C2B2204603
:1030A000611CCCB20DF80020781CC7B208E0B8F162
:1030B000000F05D030222046611CCCB20DF8002054
:1030C000012E17D1B8F1000F14D137B12E222046AE
:1030D000611CCCB20DF800200BE030222046611CB0
:1030E000CCB20DF800202E222046611CCCB20DF887
:1030F0000020B0460A2095FBF0F100FB1150303063
:10310000C2B22046611CCCB20DF80020FF2220463E
:10311000611CCCB20DF80020FC222046611CCCB210
:103120000DF80020FF222046611CCCB20DF80020D3
:103130002046611CCCB20DF800204FF0000908E0D9
:103140001DF80900124901F8090009F1010000F019
:10315000FF09A145F4DB0BE04FF0C0510D48FDF72E
:1031600041FF28B14FF0C0510A48FDF75BFE00E077
:10317000F2E700BF2146074801F0B6F805B0BDE808
:10318000F08F00007F96980040420F00A08601005B
:10319000604801205860024008B53D208DF80000CD
:1031A00002208DF8010000208DF8020001208DF82A
:1031B0000300684601F080FE08BD00000149486137
:1031C000704700000090024029B1064AD2690243CC
:1031D000044BDA6104E0034AD2698243014BDA61AD
:1031E000704700000090024030B10749896941F002
:1031F0000201054A916105E00349896921F0020154
:10320000014A9161704700000090024070B50C4681
:1032100013460021124D286000BF18E000EB411258
:103220004FF00045156044F2F4555560C1EBC115EF
:1032300005EB450504EB850595605D1E8D4204D9BF
:1032400000EB41152035D56000E0D060491C994263
:10325000E4D3044DE860044D044E356070BD0000B9
:10326000C8000020009002405C6A0120CC000020D1
:1032700030B10749896941F40051054A916105E07F
:103280000349896921F40051014A916170470000A6
:103290000090024030B50C46134600210F4D2860C7
:1032A00000BF15E000EB41124FF480151560C1EB33
:1032B000C11505EB450504EB850595605D1E8D4246
:1032C00004D900EB41152035D56000E0D060491CE1
:1032D0009942E7D3024D286130BD0000C4000020B0
:1032E0000090024002680A430260704710B5012155
:1032F000480601F0B1FF00214FF0007001F0ACFF73
:1033000010BD01B581B0002000900198009002E04E
:103310000098401E009000980028F9D10CBD0000D4
:103320000348806940F480100149886170470000BB
:10333000009002400148006880687047C400002087
:1033400000200449096801F0010109B1012000E0F1
:10335000002070470090024008B5002000906946A8
:103360000A4800681AF0B2F9009838B14FF080505E
:1033700007490860BFF34F8FBFF36F8F4020FFF7FF
:103380001DFF4FF48030FFF719FF08BD2802002011
:1033900004ED00E02DE9F04186B004460F464FF001
:1033A0000008002500200590954E0090954805697D
:1033B00025F01C0501A801F0AFFF029E924886424D
:1033C00005D39248864202D245F008051AE08F489C
:1033D000864205D38A48864202D245F00C0511E0A8
:1033E0008748864203D38A48864200D20AE088484A
:1033F000864205D38748864202D245F0040501E0A3
:1034000045F010057F4805614FF400420021384621
:1034100000F010FB18B9002006B0BDE8F0817E482E
:10342000FFF76FFF206800284ED000BF0098401CB7
:1034300000900121384600F0D1F900F0040018B9DD
:10344000764900988842F1D374490098884201D1A6
:103450000020E1E7002000904FF480520021384620
:1034600000F0E8FA08B90020D6E700BF0098401C39
:1034700000900121384600F0B1F900F0200018B9A1
:10348000664900988842F1D364490098884201D186
:103490000020C1E7002000901F21384600F09EF96F
:1034A000804608F0100018B14FF40060206201E07F
:1034B0000020206208F0040010B10020606116E0D6
:1034C0004FF48040606112E0206AC0F3CF00616970
:1034D000C1F34F0140EA01020021384600F0AAFA88
:1034E00008B9002098E76FF07F40FFF70AFF4548D2
:1034F00005684B480540D4E901010843E1680843E9
:103500002169084361690843A1690843E1690843E7
:10351000216A0843616A0843A16A0843E16A0843D3
:10352000216B0843616B0843054336480560D4E9C5
:103530000E010843216C0843616C0843A16C0843E9
:10354000E16C0843216D0843616D08432D494860D3
:10355000A06D8860E06DC860084685694FF64170CF
:103560000540B4F86010606E40EA0140A16E084367
:10357000E16E0843216F0843616F0843054321480A
:103580008561D4E91E0108431E49C8612548856943
:1035900025480540D4E920010843D4F888100843A1
:1035A000D4F88C100843D4F890100843D4F8941041
:1035B0000843D4F898100843D4F89C100843D4F872
:1035C000A0100843054317488561D4E92901084341
:1035D000D4F8AC100843D4F8B0100843D4F8B410B1
:1035E00040EA8100D4F8B810084340F400000D49C7
:1035F00008600846006840F08000086001200BE782
:103600000087930300800240002D3101C00E160296
:1036100000E1F50580D1F008FFFF0F00FFFF040077
:103620000F8120FF00900240233FDEF810B50B7998
:103630004C7943EA0422094B03441A64CB781B06F5
:103640008C7843EA04434C7843EA04230C7843EA39
:103650000402024B03445A6410BD00000080024083
:1036600010B5B0B001214FF0606001F0E5FDFFF74B
:103670003DFE00F037F900BFFFF762FE0128FBD0E6
:1036800001A800F049F901200190002008904FF4B2
:1036900000700B9000200C900F90129014901590D9
:1036A000169021904FF0007022900011249000207D
:1036B0002690279004202990C0052A9040122B9034
:1036C00080012C9040122D9040002F90002101A8E5
:1036D000FFF760FEC4B2012C03D101210248FFF7BD
:1036E00073FD204630B010BD4000010030B10749E5
:1036F000096841F00401054A116005E003490968C1
:1037000021F00401014A116070470000008002406E
:1037100030B10749096841F00801054A116005E028
:103720000349096821F00801014A1160704700004F
:103730000080024010B50A48016800200FF0CCFB61
:103740000848016800200FF0C7FB07480168002007
:103750000FF0C2FB0548016800200FF0BDFB10BD53
:1037600094000020980000209C000020A000002071
:1037700010B5A02100200FF0C1FB14490860A02162
:1037800000200FF0BBFB1249086041F6C451002035
:103790000FF0B4FB0F49086041F6C45100200FF050
:1037A000ADFB0D4908600948006840B10848006851
:1037B00028B10848006810B10846006818B9FFF73A
:1037C000B9FF012010BD0020FCE70000940000209C
:1037D000980000209C000020A000002018B50246A0
:1037E0000B460021002000901548016901F01C01E2
:1037F0004FF4784000EAC22001434FF4F86000EA39
:103800008310014321F0020141F001010C480161E4
:1038100000BF0098401C00900948016901F00100B8
:1038200018B1084C0098A042F3D3064C0098A0426F
:1038300001D1002018BD0248406980B2FAE70000BB
:1038400000800240FFFF04001EB50021002200920C
:1038500001920292214A1268126802F0004282B17B
:10386000002200921E4A526902F0800222B1802298
:103870001B4B5A6100229A609DE81C0080E81C00E6
:103880001EBD164A1268126802F40042B2B9134A09
:103890001268126802F4807282B1104A12681268CB
:1038A00002F4007252B10D4A12681268C2F30D425E
:1038B000111F0A4A12689268019200E000210091EB
:1038C000064A12680292054A1268D268034B1A60CF
:1038D0009DE81C0080E81C0000BFD1E7C800002064
:1038E000009002400348006840F001000149086070
:1038F000704700000090024000B50120FFF708FF6C
:10390000FFF70EFD0120FFF7F1FE0120FFF7B0FCED
:103910000120FFF769FC00BD012101600021416029
:103920008160C16001614FF480414161002181618A
:10393000C1614FF400610162002141628162C16294
:10394000016341638163C1634021016420214164BB
:1039500000218164C164016541658165C1650166BD
:103960008021416600218166C166016741678167E8
:10397000C1674FF08061C0F880104910C0F8841012
:103980000021C0F888104FF40011C0F88C100021FD
:10399000C0F89010C0F89410C0F89810C0F89C10AF
:1039A000C0F8A0104FF00071C0F8A4104912C0F880
:1039B000A8108901C0F8AC104912C0F8B01000215D
:1039C000C0F8B410C0F8B81070470000014617489E
:1039D0000068006800F0004008B100207047C1F3A3
:1039E0000C00124A1268506010480068006840F0ED
:1039F00040500E4A126810600C480068006840F0A1
:103A000000400A4A126810600948406900F004004A
:103A100020B10420064A506100205060034800682D
:103A2000C068024A10600120D8E70000C4000020EE
:103A30000090024038B503460C460021002000905B
:103A40001448016901F01C014FF4784000EAC320DA
:103A500001434FF4F86000EA8410014341F0020191
:103A600041F001010B484261016100BF0098401C18
:103A700000900848016901F0010018B1064D009856
:103A8000A842F3D3044D0098A84201D1002038BDCC
:103A90000120FCE700800240FFFF040008B54FF45E
:103AA000005000F025F8B8B1FCF772FF0B48006831
:103AB00070B169460948006819F046F8009838B1B5
:103AC0004FF0805006490860BFF34F8FBFF36F8FF0
:103AD0004FF4005000F006F808BD0000040000207C
:103AE00004ED00E00149086070470000143C01400B
:103AF00001460020034A12680A400AB1012000E092
:103B000000207047143C0140002123498279002A9B
:103B10003AD00A46126803689A430B461A600A1D97
:103B2000126803689A430B1D1A60027911440A68EF
:103B300003681A430A60184A0832126803689A43F5
:103B4000154B08331A601A1D126803689A43124B0A
:103B50000C331A604279102A0ED11A1F12680368BA
:103B60001A430D4B08331A601A1D126803681A4372
:103B7000094B0C331A600DE00749427911440A6879
:103B800003681A430A6005E0027911440A68036871
:103B90009A430A6070470000003C01402DE9F84359
:103BA000002500260024A0463548008A002864DD50
:103BB00018F054FD00BF15E03148406930F8160098
:103BC000C0F307222846691C8DB22E490A542C489E
:103BD000406910F816202846691C8DB229490A54FC
:103BE000701C86B22648008AB042E5DC02240EE052
:103BF000601E234931F8300021F83400601E01EBCB
:103C0000C000406801EBC4014860601E84B2002C13
:103C1000EEDC00201A4908801B480078401E1A4933
:103C2000087018F05FFD0BE04FF020511748FDF7CA
:103C3000D9F928B14FF020511448FDF7F3F800E00E
:103C4000F2E700BF2946114800F04EFB642095FBC7
:103C5000F0F0C0EBC007384607F09CF90C48007F35
:103C600001280AD108480078401C00900548C27815
:103C700041782B4607A006F0A9FDBDE8F8830000B7
:103C8000A0030020284901203A000020B864024027
:103C90001403002053656E643A2578202D20257882
:103CA000203A202564202D2D2025640D0A000000D7
:103CB00051B18200A2F1C042126842F001038200B9
:103CC000A2F1C042136009E08200A2F1C042126872
:103CD000034B1A408300A3F1C0431A6070470000F1
:103CE000FEFF0F00D0E901121143C26811430269BF
:103CF00011434269114382691143C2691143026A47
:103D00001143426A1143826A1143C26A1143026B32
:103D1000114302689200A2F1C04211608168082933
:103D20000BD101688900A1F1C041096841F040024E
:103D300001688900A1F1C0410A60416B0968426BCA
:103D4000526841EA0211426B926841EA0221426BD9
:103D5000928941EA0241426B128A41EA0251426B66
:103D6000127D41EA0261426B926911430268521C62
:103D70009200A2F1C0421160C16AB1F5804F1BD11F
:103D8000816B0968826B526841EA0211826B92680A
:103D900041EA0221826B128A41EA0251826B127D52
:103DA00041EA0261826B9269114302689200A2F1BA
:103DB000C042C2F8041107E06FF070420168890048
:103DC000A1F1C041C1F804217047F0B50A460021B5
:103DD0000023002400BF3DE0012505FA01F315682A
:103DE00005EA03049C4234D105684F000326BE4017
:103DF000B543056015794E00B5400668354305604A
:103E00001579012D02D01579022D16D185684F0044
:103E10000326BE40B543856055794E00B54086689F
:103E200035438560456801268E40B5434560456849
:103E300096798E40B6B235434560C5684F0003267B
:103E4000BE40B543C560D5794E00B540C668354320
:103E5000C560491C1029BFD3F0BDF0B50023002474
:103E60004D07ED0E02FA05F3CE1000F1200555F8CE
:103E700026504E07F70E0F26BE40B543CF1000F177
:103E8000200646F82750CE1000F1200555F82650A0
:103E900045EA0304CE1000F1200545F82640F0BDA8
:103EA000418370470183704730B585B00024EE220E
:103EB0002146641C0DF80120B1222146641C0DF836
:103EC000012001222146641C0DF80120FF22214619
:103ED000641C0DF80120FC222146641C0DF8012011
:103EE000FF222146641C0DF801202146641C0DF8B8
:103EF0000120002505E01DF805000D494855681C06
:103F0000C5B2A542F7DB0BE04FF0C0510948FDF701
:103F100069F828B14FF0C0510648FCF783FF00E074
:103F2000F2E700BF2146034800F0DEF905B030BDDE
:103F3000604801205860024001464869806880B2AC
:103F4000704708B50146D1F8CC0000680090009891
:103F5000C0F3414008BD024602F29B30405C70470E
:103F6000024602F5547050F82100704770B50446BF
:103F70000E4600250021C4F8101300BF0BE00021FD
:103F800004F5457040F825103C3040F825103C30D1
:103F90004155681CC5B20F2DF1DB0821A4F8B213FE
:103FA0003146204605F094FA204604F09BFE204658
:103FB00004F062FD0121204605F0F2FA204604F0EB
:103FC000EEFD204604F0E7FE002070BD0146D1F86A
:103FD0001003704710B50446204605F058FA00203B
:103FE00010BD70B504460D46002104F29B304155CA
:103FF000113000EB451041612946204605F0F6F8E6
:1040000070BD0000F8B50024002500272648008870
:10401000002847DD00BF13E0244830F81500C0F346
:1040200007222046611C8CB221490A541F4810F80F
:1040300015202046611C8CB21D490A54681C85B2AB
:10404000194800888542E7DB0BE04FF02051194802
:10405000FCF7C8FF28B14FF020511648FCF7E2FEEC
:1040600000E0F2E700BF2146124800F03DF964206D
:1040700094FBF0F0C0EBC006304606F08BFF0E4814
:10408000007F012809D10D48007800900848C278C7
:10409000417823460AA006F099FB002002490880D7
:1040A00006490870F8BD0000520000200090001082
:1040B00028490120B8640240140300203B0000207E
:1040C00053656E643A2578202D202578203A2025E6
:1040D00064202D2D2025640D0A00000000BFFEE79E
:1040E0008CB025E01348007840F08000114908703A
:1040F0001149002001F056FA0F48807800900E48D0
:10410000437802780DA102A806F070FB1049002048
:1041100001F022FA0E48807800900D484378C2786A
:104120000CA102A806F062FB4FF47A7018F046FC6E
:10413000D8E700000C0200201C00002054696D65C7
:104140003A253032643A253032643A253032640000
:1041500020000020446174653A3230253032642DED
:10416000253032642D2530326400000010B5084837
:10417000032102680A2001F08FFE022006F00AFFE8
:1041800002210A2001F066FD022006F003FF10BDA7
:10419000440000201CB5002401214D2001F04CF802
:1041A0000121880301F0A8F8012001F063FC8620BA
:1041B000009003208DF8050002208DF804000020F7
:1041C0008DF806008DF8070069463148FFF7FDFDC0
:1041D0000B2201212E48FFF740FE0B2202212C4822
:1041E000FFF73BFE0B2207212948FFF736FE32205E
:1041F000009069462748FFF7E8FD0B22012125487A
:10420000FFF72BFE0B2204212248FFF726FE0B228C
:1042100005212048FFF721FE4FF4D0400090694669
:104220001D48FFF7D2FD0B2211461B48FFF715FE74
:104230000B220D211848FFF710FE0B220E21164805
:10424000FFF70BFE0820009003208DF805000120E9
:104250008DF8040000208DF806008DF807006946EF
:104260000E48FFF7B2FD00200D490860322006F02D
:1042700091FE01200B49C1F88C02FEF78DFFFFF77C
:10428000EFF904460CB901201CBD0020FCE700003A
:10429000000002400008024000180240000C0240EA
:1042A0008C824142008041421CB50121202000F057
:1042B000C3FF4FF4C060009001208DF8040000207F
:1042C0008DF8060003208DF8050001208DF8070009
:1042D00069460448FFF779FD4FF4C0610148FFF7D4
:1042E000E1FD1CBD0014024070B504460D460021DE
:1042F0002046FCF7B1FD00BF2046FCF765FE002814
:10430000FAD129462046FCF7BBFE01212046FCF7E6
:10431000A3FD70BD70B586B018216846FBF7C5FFD8
:1043200092480088622110FB01F00A2190FBF1F015
:1043300000908E484088622110FB01F00A2190FB1A
:10434000F1F001908A49C97F009890FBF1F088490B
:10435000C97F00FB01F60023324603210120FEF74E
:104360004DFD022006F016FE8149C97F019890FBA1
:10437000F1F07F49C97F00FB01F60023324604219A
:104380000120FEF73BFD022006F004FE794800887C
:1043900042F2747110FB01F6F01706EB5040C213A5
:1043A000032309210120FEF729FD022006F0F2FD7A
:1043B0007048408842F2747110FB01F6F01706EB6A
:1043C0005040C21303230A210120FEF717FD0220EB
:1043D00006F0E0FD6848B0F9000000280FDD6448F1
:1043E000C08C6549B1F9001090FBF1F6002332460C
:1043F00005210120FEF702FD022006F0CBFD5E48FC
:10440000B0F9020000280FDD5948C08C5A49B1F9B3
:10441000021090FBF1F60023324606210120FEF740
:10442000EDFC022006F0B6FD54480078012804D0C7
:10443000022804D0032806D103E051A405E052A4C9
:1044400003E053A401E052A400BF00BF4B48007832
:1044500003280BD150480078C82801DB4FA408E09E
:104460004D480078401C4C49087002E000204A4941
:10447000087042484078012804D0022804D003285C
:1044800006D103E03EA505E03FA503E040A501E01D
:104490003FA500BF00BF3948407803280BD14148F1
:1044A0000078C82801DB3DA508E03E480078401CA4
:1044B0003C49087002E000203A4908702246112168
:1044C000012001F0E9FC022006F064FD2A460721E4
:1044D000012001F0E1FC022006F05CFD2448007D93
:1044E00020B1012808D0022812D10BE02EA21221FF
:1044F000012001F0D1FC11E02CA21221012001F0D9
:10450000CBFC0BE02AA21221012001F0C5FC05E042
:1045100028A21221012001F0BFFC00BF00BF022031
:1045200006F038FD01232548B0F900200F21184678
:10453000FEF764FC022006F02DFD1A480078C8281A
:1045400003DA15480078C82805DB1DA213210120D5
:1045500001F0A2FC04E01EA21321012001F09CFC4A
:10456000022006F017FD06B070BD000040120020CA
:104570001403002000120020C01200203C00002084
:10458000D2D1B4A2C4DC0000CEB4B4A2C4DC00001A
:10459000CEB4D6AA0000000038000020B9CAD5CF9A
:1045A000000000003900002041CFE00042CFE000D1
:1045B00043CFE000C6E4CBFB000000002C0000204D
:1045C000B3ACB3F6D4A4C9E8B7B6CEA7A3A1000094
:1045D000CEDE000070B586B018216846FBF765FE98
:1045E0007E480088622110FB01F00A2190FBF1F067
:1045F00000907A484088622110FB01F00A2190FB6C
:10460000F1F001907649C97F009890FBF1F0744970
:10461000C97F00FB01F60023324607210220FEF786
:10462000EDFB022006F0B6FC6D49C97F019890FBB6
:10463000F1F06B49C97F00FB01F6002332460821E7
:104640000220FEF7DBFB022006F0A4FC6548B0F96F
:104650000020002305210220FEF7D0FB022006F0F7
:1046600099FC6048B0F90220002306210220FEF7E1
:10467000C5FB022006F08EFC5A48B0F90000002865
:104680000FDD5748C08C5749B1F9001090FBF1F687
:10469000002332460B210220FEF7B0FB022006F079
:1046A00079FC5048B0F9020000280FDD4C48C08C5E
:1046B0004C49B1F9021090FBF1F6002332460C216F
:1046C0000220FEF79BFB022006F064FC46480078BF
:1046D000012804D0022804D0032806D103E043A413
:1046E00005E044A403E045A401E044A400BF00BFEA
:1046F0003D48007803280BD142480078C82801DBE8
:1047000041A408E03F480078401C3E49087002E0A0
:1047100000203C49087034484078012804D0022821
:1047200004D0032806D103E030A505E031A503E05D
:1047300032A501E031A500BF00BF2B484078032817
:104740000BD133480078C82801DB2FA508E030489A
:104750000078401C2E49087002E000202C490870A7
:1047600022461321022001F097FB022006F012FCE2
:104770002A460921022001F08FFB022006F00AFCE4
:104780001748C28C002311210220FEF737FB0220BC
:1047900006F000FC01231F48B0F900200F21022081
:1047A000FEF72CFB022006F0F5FB19480078C8281C
:1047B00003DA14480078C82805DB17A21521022067
:1047C00001F06AFB04E018A21521022001F064FB4D
:1047D000022006F0DFFB06B070BD00004012002092
:1047E00014030020C01200203C000020D2D1B4A24B
:1047F000C4DC0000CEB4B4A2C4DC0000CEB4D6AA9F
:104800000000000038000020B9CAD5CF0000000029
:10481000390000202C000020B3ACB3F6D4A4C9E8C2
:10482000B7B6CEA7A3A10000CEDE000000BFFEE712
:10483000FEB507460024002500266B4808F032F834
:1048400000206A4988756AA005F0C0FFC6E072A022
:1048500005F0BCFF644844688568C668002C4DD0EC
:104860000220624988750846407909795F4AD27802
:10487000CDE9002102905D488378427801786BA0F1
:1048800005F0A4FF210E59484173210C0173210A40
:10489000C17201468C72407B00900846037BC27A4D
:1048A000817A70A005F092FF290E50484174290CBE
:1048B0000174290AC17301468D73407C009008463B
:1048C000037CC27B817B73A005F080FF310E4748DB
:1048D0004175310C0175310AC17401468E74407DF9
:1048E00000900846037DC27C817C76A005F06EFFB7
:1048F00001208049087000F07FF970E03A48006AB2
:10490000407B022866DDFF20384988750846407BD9
:1049100001063648007B41EA00413448C07A41EA4A
:1049200000203249897A08432F4948602F48407C4B
:1049300001062E48007C41EA00412C48C07B41EA38
:1049400000202A49897B0843274988602748407D01
:1049500001062648007D41EA00412448C07C41EA26
:1049600000202249897C08431F49C86062A005F0E5
:104970002DFF1E4840791D4909791C4AD278CDE99E
:1049800000210290194883784278017827A005F029
:104990001DFF1648407B00901448037BC27A817A41
:1049A0005DA005F013FF1148407C00900F48037C88
:1049B000C27B817B64A005F009FF0C48407D00901C
:1049C0000A48037DC27C817C6BA005F0FFFE00F0ED
:1049D00013F904E04FF4FA7006F0DCFA37E700BF91
:1049E00000F0FCF8FEBD000024C501200CC501202C
:1049F000D5FDD4DAB2E9D5D244484350B7FECEF162
:104A0000C6F72CC7EBC9D4B5C82E2E2E2E2E2E2EAF
:104A10002E2E2E2E0D0A0000D5FDD4DABBF1C8A132
:104A2000B5D8D6B72E2E2E0D0A000000CDF8BFA89F
:104A3000656EB5C44D4143B5D8D6B7CEAA3A2E2E31
:104A40002E2E2E2E2E2E2E2E2E2E2E2E2E2E256459
:104A50002E25642E25642E25642E25642E25640DB6
:104A60000A000000CDA8B9FD44484350BBF1C8A1DD
:104A7000B5BD4950B5D8D6B72E2E2E2E2E2E2E2EA1
:104A80002E2E2E2E2E2E25642E25642E25642E25C8
:104A9000640D0A00CDA8B9FD44484350BBF1C8A13C
:104AA000B5BDD7D3CDF8D1DAC2EB2E2E2E2E2E2EB9
:104AB0002E2E2E2E2E2E25642E25642E25642E2598
:104AC000640D0A00CDA8B9FD44484350BBF1C8A10C
:104AD000B5BDB5C4C4ACC8CFCDF8B9D82E2E2E2ED6
:104AE0002E2E2E2E2E2E25642E25642E25642E2568
:104AF000640D0A00F801002044484350B7FECEF18F
:104B0000B3ACCAB12CCAB9D3C3BEB2CCAC4950B550
:104B1000D8D6B7210D0A0000BEB2CCAC4950B5D8EA
:104B2000D6B72E2E2E2E2E2E2E2E2E2E2E2E2E2E74
:104B30002E2E2E2E2E2E2E2E2E2E25642E25642E3B
:104B400025642E25640D0A00D7D3CDF8D1DAC2EB47
:104B50002E2E2E2E2E2E2E2E2E2E2E2E2E2E2E2E75
:104B60002E2E2E2E2E2E2E2E2E2E25642E25642E0B
:104B700025642E25640D0A00C4ACC8CFCDF8B9D881
:104B80002E2E2E2E2E2E2E2E2E2E2E2E2E2E2E2E45
:104B90002E2E2E2E2E2E2E2E2E2E25642E25642EDB
:104BA00025642E25640D0A001CB517F057FD064834
:104BB0000E2100238022CDE9001004A1064818F040
:104BC000C1FE17F08FFD1CBD1002002064686370E9
:104BD0005F7461736B0000003148000810B5044831
:104BE00007F040FF0348006817F022FF10BD0000E7
:104BF00024C50120100200201CB517F02FFD074826
:104C00000D2100234FF49672CDE9001004A107484E
:104C100018F098FE17F066FD1CBD0000140200207D
:104C2000544350535F7461736B000000314C0008B3
:104C300086B000250022114610200EF03BFE804673
:104C400041F69872584940460EF0E6FAFF21404678
:104C50000EF0CEFD0A20C8F81C00A4E004A94046CE
:104C60000EF07AF9074617B90A200499C861002F97
:104C7000F3D100234D4A4E4904980EF013FD4C48E1
:104C80000068000E8DF8170049480068000C8DF888
:104C9000160047480088000A8DF81500444800783F
:104CA0008DF81400414801889DF81700CDE90001F6
:104CB0009DF816309DF815209DF814103DA005F0C4
:104CC00085FD6DE04748007800F08000802818D10D
:104CD00045480068FBF700FB8146002001234A4657
:104CE00000904148016804980FF092F8074617B108
:104CF0003EA005F06BFD3B48007820F0800039496C
:104D0000087003A904980EF0A1FE0646002E31D1CA
:104D100017F0A4FC4FF4FA613748FBF7C6FA039882
:104D2000046819E06089C5F5FA61884207D9C5F5BC
:104D3000FA62314B58196168FBF79EFA05E0628907
:104D40002D4B58196168FBF797FA60890544B5F552
:104D5000FA6F00D902E02468002CE3D100BF17F0FD
:104D6000C1FC0025244925A005F030FD03980EF074
:104D7000E3F815E006F10C0090B904980EF0B0FAD3
:104D800004980EF017FB9DF8170000909DF8163060
:104D90009DF815209DF814101AA005F017FD00E0ED
:104DA00090E700BF00BF59E7288C040824020020C8
:104DB00020020020D6F7BBFA25642E25642E256438
:104DC0002E2564C1ACBDD3C9CFB7FECEF1C6F72C3A
:104DD000D6F7BBFAB6CBBFDABAC5CEAA3A25640D70
:104DE0000A0000000C02002008020020B7A2CBCD70
:104DF000CAA7B0DC0D0A000058C5012025730D0AB2
:104E000000000000D6F7BBFA3A25642E25642E2553
:104E1000642E2564B6CFBFAAD3EBB7FECEF1C6F79A
:104E2000B5C4C1ACBDD30D0A000000003EB541F6CB
:104E3000FF740121080700F03FFA012000F0DAF8C2
:104E4000002000F009FC45F25001884231D00120D9
:104E500000F0F6FA04E0601C84B20A2006F0DEF8E6
:104E6000412000F0CDFA0028F5D00CB901203EBD5C
:104E70004FF4807000F000FB012000F0F7FA7F2073
:104E80000190FF20029000200090684600F0B2FBE5
:104E9000002338223B21172000F0CCFC01230522FF
:104EA00011460E2000F0B4FC45F25001002000F045
:104EB00009FD0020DBE7704770B5002100230F22B9
:104EC000C4781CB3174C246804F4E064C4F5E064AF
:104ED000C4F30721C1F10404E3B20A4144789C40C1
:104EE000E1B28478144021430C07210E0E4C057862
:104EF0006155047804F01F050124AC4005786D115C
:104F0000AD0005F1E025C5F8004109E0047804F0A2
:104F10001F050124AC40054D0678761145F8264062
:104F200070BD00000CED00E000E400E080E100E076
:104F300002490143024A1160704700000000FA056F
:104F40000CED00E010B5024803F080F810BD000041
:104F5000A01300201CB50121202000F06DF94FF4B2
:104F60006040009001208DF8040000208DF80600BC
:104F700003208DF8050002208DF8070069460448DB
:104F8000FEF723FF4FF480710148FEF789FF1CBD37
:104F90000014024000244FF4806100200DF0AEFFA9
:104FA000044613E024B12A4609A1204605F01EFC60
:104FB0000D4804600D490E4803F0E4F9012005F0A6
:104FC000E9FF681CC5B2C82017F0F8FCEAE700004A
:104FD0004D656D6F7279204D616C6C6F6320546507
:104FE0007374253033640000300000200C1300205F
:104FF000A0130020014908627047000000000E4223
:1050000010B57548B0F86620002308210620FDF78A
:10501000F5FE022005F0BEFF6F48407D30B101284B
:1050200006D0022806D0032808D105E06BA40AE0C8
:105030006CA408E06DA406E06EA404E000206649BC
:10504000487566A400BF00BF22460921062000F073
:1050500023FF022005F09EFF5F48807D012805D1D7
:1050600066A20A21062000F017FF04E065A20A21CB
:10507000062000F011FF022005F08CFF5648007E4C
:1050800020B1012804D0022806D103E05FA408E083
:1050900060A406E061A404E001204F4908765DA405
:1050A00000BF00BF22460B21062000F0F5FE0220C3
:1050B00005F070FF484890F82000012805D14FA264
:1050C0000C21062000F0E8FE04E04EA20C21062090
:1050D00000F0E2FE022005F05DFF3F48B0F84820F6
:1050E00000230D210620FDF789FE022005F052FF66
:1050F0003948B0F84A2000230E210620FDF77EFE35
:10510000022005F047FF3448C28C002317210620F7
:10511000FDF774FE022005F03DFF2F48C27F0023FB
:1051200018210620FDF76AFE022005F033FF2A4809
:10513000007D20B1012808D0022812D10BE039A24D
:105140000521062000F0A8FE11E037A20521062067
:1051500000F0A2FE0BE035A20521062000F09CFE27
:1051600005E033A20521062000F096FE00BF00BF37
:10517000022005F00FFF1848B0F864200023062134
:105180000846FDF73BFE022005F004FF1248B0F888
:105190006220002307210620FDF730FE022005F0E3
:1051A000F9FE0D48B0F86020002303210620FDF72A
:1051B00025FE022005F0EEFE0748B0F85E20002331
:1051C00004210620FDF71AFE022005F0E3FE02206E
:1051D00005F0E0FE10BD000014030020B5A5BBFAE9
:1051E00000000000B2A2CDF800000000B2E2CAD474
:1051F00000000000B1B8D3C300000000B4F2BFAAA1
:1052000000000000B9D8B1D50000000039363030B8
:10521000000000003131353230300000323330349C
:105220003030000041CFE00042CFE00043CFE0004B
:10523000C6E4CBFB0000000029B1064A1268024315
:10524000044B1A6004E0034A12688243014B1A605F
:10525000704700003038024029B1064A1268024304
:10526000044B1A6004E0034A12688243014B1A603F
:10527000704700001038024029B1064A1268024304
:10528000044B1A6004E0034A12688243014B1A601F
:10529000704700003438024029B1064A12680243C0
:1052A000044B1A6004E0034A12688243014B1A60FF
:1052B000704700003838024029B1064A126802439C
:1052C000044B1A6004E0034A12688243014B1A60DF
:1052D000704700004038024029B1064A1268024374
:1052E000044B1A6004E0034A12688243014B1A60BF
:1052F000704700002038024029B1064A1268024374
:10530000044B1A6004E0034A12688243014B1A609E
:105310007047000044380240F0B50021002200240C
:10532000022500260223324F3F6807F00C0121B10D
:10533000042905D0082937D105E02E4F076036E053
:105340002D4F076033E02A4F3F1F3F68C7F3805659
:10535000274F3F1F3F6807F03F036EB1264FB7FB53
:10536000F3F7DFF88CC0ACF1040CDCF800C0CCF330
:10537000881C07FB0CF40CE01E4FB7FBF3F7DFF8BB
:1053800070C0ACF1040CDCF800C0CCF3881C07FB47
:105390000CF4174F3F1F3F68C7F301477F1C7D0088
:1053A000B4FBF5F7076002E0124F076000BF00BFD3
:1053B0000F4F3F6807F0F0010909104F7A5C07684A
:1053C000D74047600A4F3F6807F4E051890A0B4F06
:1053D0007A5C4768D7408760054F3F6807F46041B3
:1053E000490B064F7A5C4768D740C760F0BD0000A4
:1053F000083802400024F40000127A00B4000020B3
:1054000010B501460022002300204A11012A02D1D2
:105410000A4C236808E0022A03D1084C7034236840
:1054200002E0064C7434236801F01F02012494400A
:105430001C400CB1012000E0002010BD00380240EB
:105440000021094A11701170012802D0042808D1E6
:1054500003E00121044A117004E00521024A1170A1
:1054600000E000BF00BF704770380240014908608B
:10547000704700003C0E4742002100F44072B2F534
:10548000407F08D1094A116821F4F811084A024006
:105490001143064A1160054A68321268C0F30B03D3
:1054A0001A43024B68331A60704700000838024004
:1054B000FFFCFF0F10B54FF40030FEF713FB10BDDB
:1054C000014600BF080900EB8000420001F00F0018
:1054D0001044C0B270470146002204E0501CC2B222
:1054E000A1F10A00C1B20A29F8DA100741EA1060F6
:1054F0007047000008B50022009200200021104AE9
:10550000126802F04002CAB9421E0D4B1A6000BF79
:105510000B4A126802F04001009A521C0092009A55
:10552000B2F5803F01D00029F2D0054A126802F09E
:1055300040020AB1012002E0002000E0012008BD85
:105540000C2800400348006820F0800001490860F2
:10555000704700000C28004070B506460C46002538
:105560000E4800680E4900EA0105280CE070C5F3FA
:105570000420607005F03F00A070C5F34230207039
:105580005EB9E078FFF79CFFE0706078FFF798FF66
:105590006070A078FFF794FFA07070BD04280040F1
:1055A0003FFFFF0070B506460C4600250F48006817
:1055B0000F4900EA0105C5F305402070C5F3062038
:1055C000607005F07F00A07005F48000000CE070B2
:1055D0005EB92078FFF774FF20706078FFF770FFE6
:1055E0006070A078FFF76CFFA07070BD00280040CD
:1055F0007F7F7F0030B504460025CA20154908602A
:1056000053200860FFF776FF00B91DE011481C38F1
:10561000006820F040000F491C3908600846006807
:10562000216808430B491C3908600A491439A068ED
:10563000086008460068A18840EA0140054914391D
:105640000860FFF77FFF0125FF2002490860284618
:1056500030BD00002428004008B50146002000901D
:1056600004480090009800EB8100009000980068CA
:1056700008BD0000502800402DE9F04105460C46C9
:10568000002600274DB9607800F01000102804D1E2
:10569000607820F010000A30607005B908E060788A
:1056A000FFF70EFF0646A078FFF70AFF064600BF89
:1056B00055B1E0780004617840EA0120A178084300
:1056C000217840EA413611E0E078FFF704FF4FEA25
:1056D00000486078FFF7FFFE48EA0028A078FFF74F
:1056E000FAFE48EA0008207848EA4036CA20124903
:1056F000086053200860FFF7FDFE08B9002714E09A
:105700000E4830400C4920390860FFF71BFF0A485B
:105710001C38006800F0200030B900F0A3F808B988
:10572000002702E0012700E00127FF20024908606E
:105730003846BDE8F0810000242800403FFFFF000C
:105740002DE9F04105460C46002600274DB92E48AC
:10575000006800F0400000B102E00020E07000BFEF
:105760000DE02948006800F0400020B12078FFF7E4
:10577000A7FE064602E00020E07000BF00BF55B162
:1057800020780004617840EA0120A1780843E1789C
:1057900040EA014611E02078FFF79DFE4FEA0048FD
:1057A0006078FFF798FE48EA0028A078FFF793FE9C
:1057B00048EA0008E07848EA0046CA2012491C314D
:1057C000086053200860FFF795FE08B9002713E032
:1057D0000E4830400C4908390860FFF7B3FE0A480C
:1057E000006800F0200030B900F03CF808B900274C
:1057F00002E0012700E00127FF2003491C31086077
:105800003846BDE8F0810000082800407F7F7F0017
:10581000F8B504460D4617461E468DF802708DF801
:1058200001508DF800608DF8034069460020FFF7B5
:1058300023FFF8BDF8B504460D4617461E468DF801
:1058400000408DF801508DF802708DF803606946B4
:105850000020FFF775FFF8BD10B54FF48000FEF78C
:1058600041F910BD08B50022009200200021CA2293
:10587000134B1A6053221A60114A183A126822F028
:10588000A0020F4B183B1A6000BF0D4A183A12686D
:1058900002F02001009A521C0092009AB2F5003FDB
:1058A00001D00029F1D0064A183A126802F020020D
:1058B0000AB1012000E00020FF22014B1A6008BD60
:1058C0002428004008B500220092044A0092009A61
:1058D00002EB80020092009A116008BD502800403F
:1058E00000B587B001210220FFF7A6FC0121880343
:1058F000FFF7E2FC4FF46040059002208DF818009D
:1059000000208DF81A0003208DF8190001208DF871
:105910001B0005A92148FEF758FA05220D211F4852
:10592000FEF79BFA05220E211C48FEF796FA052287
:105930000F211A48FEF791FA01218803FFF7CCFCEA
:1059400000214FF48040FFF7C7FC0020ADF80000B5
:105950004FF48270ADF802000020ADF80400022080
:10596000ADF806000120ADF808004002ADF80A00CD
:105970003820ADF80C000020ADF80E000720ADF87F
:1059800010006946064800F057F80121044800F06D
:1059900039F8FF2000F006F807B000BD000402400F
:1059A0000038004010B5044600BF02210A4800F04C
:1059B00035F80028F9D02146074800F03BF800BF31
:1059C0000121054800F02AF80028F9D0024800F02B
:1059D0002EF8C0B210BD00000038004010B50446DB
:1059E000074800884FF6C7710840054908800846F7
:1059F0000088204308800121014800F003F810BD11
:105A00000038004021B1028842F04002028004E0E8
:105A100002884FF6BF731A4002807047024600208A
:105A200013890B400BB1012000E0002070470146B4
:105A3000888970478181704710B50022028802F47E
:105A400041520B884C8823438C882343CC882343C2
:105A50000C8923434C8923438C892343CC892343DA
:105A60001A430280838B4FF2FF74234083830B8A97
:105A7000038210BD0149086070470000DC00274226
:105A800030B500228B071C0F0F2303FA04F20B4BD7
:105A90008C1053F824309343084C8D1044F8253073
:105AA00023468C1053F824308C07240F00FA04F49A
:105AB0002343024C8D1044F8253030BD0838014096
:105AC00010B51A48407E012805D119A205210920E8
:105AD00000F0E2F904E018A20521092000F0DCF949
